:020000040000fa
:080000000002040000000000f2
:020000040000fa
:040008001a030000d7
:020000040000fa
:04000c005c03000091
:020000040000fa
:04001000bc0300002d
:020000040000fa
:040014003a030000ab
:020000040000fa
:040018007c03000065
:020000040000fa
:04001c009c03000041
:020000040000fa
:04002000dc030000fd
:020000040000fa
:04002400560500007d
:020000040000fa
:040028005605000079
:020000040000fa
:04002c005605000075
:020000040000fa
:040030005605000071
:020000040000fa
:04003400280400009c
:020000040000fa
:040038008c04000034
:020000040000fa
:04003c005605000065
:020000040000fa
:040040005605000061
:020000040000fa
:04004400560500005d
:020000040000fa
:040048005605000059
:020000040000fa
:04004c005605000055
:020000040000fa
:040050005605000051
:020000040000fa
:04005400560500004d
:020000040000fa
:040058005605000049
:020000040000fa
:04005c005605000045
:020000040000fa
:040060005605000041
:020000040000fa
:04006400560500003d
:020000040000fa
:040068005605000039
:020000040000fa
:04006c005605000035
:020000040000fa
:040070005605000031
:020000040000fa
:040074005e04000026
:020000040000fa
:040078005605000029
:020000040000fa
:04007c005605000025
:020000040000fa
:040080005605000021
:020000040000fa
:04008400560500001d
:020000040000fa
:04008800aa040000c6
:020000040000fa
:04008c005605000015
:020000040000fa
:040090005605000011
:020000040000fa
:04009400560500000d
:020000040000fa
:040098005605000009
:020000040000fa
:04009c005605000005
:020000040000fa
:0400a0005605000001
:020000040000fa
:0400a40056050000fd
:020000040000fa
:0400a80056050000f9
:020000040000fa
:0400ac0056050000f5
:020000040000fa
:0400b00056050000f1
:020000040000fa
:0400b400c80400007c
:020000040000fa
:0400b80056050000e9
:020000040000fa
:0400bc0056050000e5
:020000040000fa
:0400c00056050000e1
:020000040000fa
:0400c40056050000dd
:020000040000fa
:0400c80056050000d9
:020000040000fa
:0400cc0056050000d5
:020000040000fa
:0400d00056050000d1
:020000040000fa
:0400d40056050000cd
:020000040000fa
:0400d80056050000c9
:020000040000fa
:0400dc0056050000c5
:020000040000fa
:0400e00056050000c1
:020000040000fa
:0400e40056050000bd
:020000040000fa
:0400e80056050000b9
:020000040000fa
:0400ec0056050000b5
:020000040000fa
:0400f00056050000b1
:020000040000fa
:0400f40056050000ad
:020000040000fa
:0400f80056050000a9
:020000040000fa
:0400fc0056050000a5
:020000040000fa
:0401000056050000a0
:020000040000fa
:04010400560500009c
:020000040000fa
:040108005605000098
:020000040000fa
:04010c005605000094
:020000040000fa
:040110005605000090
:020000040000fa
:04011400560500008c
:020000040000fa
:040118005605000088
:020000040000fa
:04011c005605000084
:020000040000fa
:040120005605000080
:020000040000fa
:04012400560500007c
:020000040000fa
:040128005605000078
:020000040000fa
:04012c005605000074
:020000040000fa
:040130005605000070
:020000040000fa
:04013400560500006c
:020000040000fa
:040138005605000068
:020000040000fa
:04013c005605000064
:020000040000fa
:040140005605000060
:020000040000fa
:04014400560500005c
:020000040000fa
:040148005605000058
:020000040000fa
:04014c005605000054
:020000040000fa
:040150005605000050
:020000040000fa
:04015400560500004c
:020000040000fa
:040158005605000048
:020000040000fa
:04015c005605000044
:020000040000fa
:040160005605000040
:020000040000fa
:04016400560500003c
:020000040000fa
:040168005605000038
:020000040000fa
:04016c005605000034
:020000040000fa
:040170005605000030
:020000040000fa
:04017400560500002c
:020000040000fa
:040178005605000028
:020000040000fa
:04017c005605000024
:020000040000fa
:040180005605000020
:020000040000fa
:04018400560500001c
:020000040000fa
:040188005605000018
:020000040000fa
:04018c005605000014
:020000040000fa
:040190005605000010
:020000040000fa
:04019400560500000c
:020000040000fa
:040198005605000008
:020000040000fa
:04019c005605000004
:020000040000fa
:0401a0005605000000
:020000040000fa
:0401a40056050000fc
:020000040000fa
:0401a80056050000f8
:020000040000fa
:0401ac0056050000f4
:020000040000fa
:0401b00056050000f0
:020000040000fa
:0401b40056050000ec
:020000040000fa
:0401b80056050000e8
:020000040000fa
:0401bc0056050000e4
:020000040000fa
:0401c00056050000e0
:020000040000fa
:0401c40056050000dc
:020000040000fa
:0401c80056050000d8
:020000040000fa
:0401cc0056050000d4
:020000040000fa
:0401d00056050000d0
:020000040000fa
:0401d40056050000cc
:020000040000fa
:0401d80056050000c8
:020000040000fa
:0401dc0056050000c4
:020000040000fa
:0401e00056050000c0
:020000040000fa
:0401e40056050000bc
:020000040000fa
:0401e80056050000b8
:020000040000fa
:0401ec0056050000b4
:020000040000fa
:0401f00056050000b0
:020000040000fa
:0401f40056050000ac
:020000040000fa
:0401f80056050000a8
:020000040000fa
:0401fc0056050000a4
:020000040000fa
:04020000560500009f
:020000040000fa
:04020400560500009b
:020000040000fa
:040208005605000097
:020000040000fa
:04020c005605000093
:020000040000fa
:04021000560500008f
:020000040000fa
:04021400560500008b
:020000040000fa
:040218005605000087
:020000040000fa
:04021c005605000083
:020000040000fa
:04022000560500007f
:020000040000fa
:04022400560500007b
:020000040000fa
:040228005605000077
:020000040000fa
:04022c005605000073
:020000040000fa
:04023000560500006f
:020000040000fa
:04023400560500006b
:020000040000fa
:040238005605000067
:020000040000fa
:04023c005605000063
:020000040000fa
:04024000560500005f
:020000040000fa
:04024400560500005b
:020000040000fa
:040248005605000057
:020000040000fa
:04024c005605000053
:020000040000fa
:04025000560500004f
:020000040000fa
:04025400560500004b
:020000040000fa
:040258005605000047
:020000040000fa
:04025c005605000043
:020000040000fa
:04026000560500003f
:020000040000fa
:04026400560500003b
:020000040000fa
:040268005605000037
:020000040000fa
:04026c005605000033
:020000040000fa
:04027000560500002f
:020000040000fa
:04027400560500002b
:020000040000fa
:040278005605000027
:020000040000fa
:04027c005605000023
:020000040000fa
:04028000560500001f
:020000040000fa
:04028400560500001b
:020000040000fa
:040288005605000017
:020000040000fa
:04028c005605000013
:020000040000fa
:04029000560500000f
:020000040000fa
:04029400560500000b
:020000040000fa
:040298005605000007
:020000040000fa
:04029c005605000003
:020000040000fa
:0402a00056050000ff
:020000040000fa
:0402a40056050000fb
:020000040000fa
:0402a80056050000f7
:020000040000fa
:0402ac0056050000f3
:020000040000fa
:0402b00056050000ef
:020000040000fa
:0402b40056050000eb
:020000040000fa
:0402b80056050000e7
:020000040000fa
:0402bc0056050000e3
:020000040000fa
:0402c00056050000df
:020000040000fa
:0402c40056050000db
:020000040000fa
:0402c80056050000d7
:020000040000fa
:0402cc0056050000d3
:020000040000fa
:0402d00056050000cf
:020000040000fa
:0402d40056050000cb
:020000040000fa
:0402d80056050000c7
:020000040000fa
:0402dc0056050000c3
:020000040000fa
:0402e00056050000bf
:020000040000fa
:0402e40056050000bb
:020000040000fa
:0402e80056050000b7
:020000040000fa
:0402ec0056050000b3
:020000040000fa
:0402f00056050000af
:020000040000fa
:0402f40056050000ab
:020000040000fa
:0402f80056050000a7
:020000040000fa
:0402fc0056050000a3
:020000040000fa
:04030000560500009e
:020000040000fa
:04030400560500009a
:020000040000fa
:040308005605000096
:020000040000fa
:04030c005605000092
:020000040000fa
:04031000560500008e
:020000040000fa
:100400000f4021000eff24000e01880000000000b4
:10041000000020000000e000020032000001200087
:100420002002880014000700a20107000000e0007d
:1004300003003a0020912200010020000200370052
:100440000000200001002000810f70000100320038
:100450000f000700000020000000e0000200320052
:100460000000020000000000f8260200000000006a
:100470000040da000000fe00200020000000e00044
:1004800002003200100020009001880000000600e9
:10049000a1028800800478000000eb001f003700f4
:1004a000e284440054a0b4009905ba00e2844400f8
:1004b00054a0b4009906ba00e284440054a0b400e9
:1004c0000006eb00476fde00fd07b200ae018800ba
:1004d000636ce10003003a000ad801000000eb0061
:1004e0000e003700606ce10008003a00004deb00a0
:1004f0000a05e800020039003420ec000af0a000f0
:100500008b05e900f9ff3e00040037006168e10057
:10051000010032000086eb000b00070019c7ba008b
:100520000e04e0001905ba0003003a000a00e000da
:10053000dbff3a0000000600fe07b200ae028800b2
:100540008a047800f5ff37000cd0a300e20f4d00bd
:100550001c003b0089027800354dba000a05e8000e
:10056000020039003420ec000af0a0008b05e900fd
:100570000f003200254dba000a05e80002003900dc
:100580003420ec000af0a0008b05e90008003200de
:100590000c00e0000600320015cdba000a05e800a4
:1005a000020039003420ec000af0a0008b05e900bd
:1005b0008984e80054a0b4000b00e000e2ff3a0098
:1005c000000006009902ba00055d78008b05e9007d
:1005d000f7ff3200c82ade00055d78008b05e900d0
:1005e000f3ff32000c00e000f1ff320019ddba0029
:1005f000eeff37001024040000000000c8260400ad
:1006000000000000521604000000000066160400fe
:10061000000000007a160400000000008e1604009e
:1006200000000000a016040000000000e428040000
:10063000000000003600f800809fbe00829fbe00d0
:10064000849fbe00869fbe000000fa00c028a9005b
:100650000000eb004f1307000080fa004f03be00bc
:100660004f02be004f01be004f00be003600f90031
:10067000004006003600f800809fbe00829fbe004a
:10068000849fbe00869fbe000000fa00461307004c
:10069000c048a900100020003e1307000080fa00a7
:1006a0004f03be004f02be004f01be004f00be0010
:1006b0003600f900004006003600f800809fbe00ba
:1006c000829fbe00849fbe00869fbe000000fa008d
:1006d000c068a900200020002e1307000080fa0047
:1006e0004f03be004f02be004f01be004f00be00d0
:1006f0003600f900004006003600f800809fbe007a
:10070000829fbe00849fbe00869fbe000000fa004c
:10071000c088a900300020001e1307000080fa00e6
:100720004f03be004f02be004f01be004f00be008f
:100730003600f900004006003600f800809fbe0039
:10074000829fbe00849fbe00869fbe000000fa000c
:10075000c0a8a900400020000e1307000080fa0086
:100760004f03be004f02be004f01be004f00be004f
:100770003600f900004006003600f800809fbe00f9
:10078000829fbe00849fbe00869fbe000000fa00cc
:10079000c608a90070002000fe1207000080fa00c1
:1007a0004f03be004f02be004f01be004f00be000f
:1007b0003600f900004006003600f800809fbe00b9
:1007c000829fbe00849fbe00869fbe000000fa008c
:1007d0002146800000102000008060000000e00042
:1007e00003003200c508a900c0002000e91207007c
:1007f0002146800000002800008060000000e0002a
:1008000003003200c5e8a90080002000e1120700c3
:100810002146800000022000008060000000e0000f
:1008200003003200c4a8a90090002000d9120700dc
:1008300020468000700060000000e00003003200ed
:10084000c488a900a0002000d2120700ffff3700d3
:100850003600f800809fbe00829fbe00849fbe00cd
:10086000869fbe000000fa00f08280000000e000d9
:1008700002003200f082800000000100700a2100b6
:10088000104078008040e800700a2100014878009c
:10089000600a210011c0b300014878000068a90077
:1008a0000080fa004f03be004f02be004f01be00a1
:1008b0004f00be003600f900004006003600f80088
:1008c000809fbe00829fbe00849fbe00869fbe00a8
:1008d0000000fa0010408000680060000000e000a6
:1008e00006003200208380000000e0000200320099
:1008f00020838000000001000268a9000080fa0047
:100900004f03be004f02be004f01be004f00be00ad
:100910003600f900004006003600f800809fbe0057
:10092000829fbe00849fbe00869fbe000000fa002a
:10093000c81107000088a9000080fa004f03be001c
:100940004f02be004f01be004f00be003600f9004e
:10095000004006003600f800809fbe00829fbe0067
:10096000849fbe00869fbe000000fa00c9110700e8
:100970000308a9000080fa004f03be004f02be002a
:100980004f01be004f00be003600f90000400600d7
:100990003600f800809fbe00829fbe00849fbe008c
:1009a000869fbe000000fa00512080000002200057
:1009b000008060000000e0001f0032005120800035
:1009c00000002200008060000000e000050032000e
:1009d000908280000000e0000200320090828000df
:1009e0000000010051208000000021000080600014
:1009f0000000e00005003200a08280000000e0005e
:100a000002003200a082800000000100512080001e
:100a100000802000008060000000e000050032003f
:100a2000b08280000000e00002003200b08280004e
:100a3000000001000aa4a9005020800062006000ac
:100a40000000e00006003200d08280000000e000dc
:100a500002003200d0828000000001000a24a900b8
:100a60005120800000042000008060000000e000b1
:100a700006003200c08280000000e0000200320068
:100a8000c0828000000001000ac4a9000468a90017
:100a90000080fa004f03be004f02be004f01be00af
:100aa0004f00be003600f900004006000040da00aa
:100ab0000000fe00000005000001be003c00070031
:100ac0000470a70003f0a1006509b1001600320010
:100ad0000d0035006828e10006003500f0ff2f000a
:100ae000f1ff27000300e00013003b000100280095
:100af0000000050000004000818048008502e900f8
:100b0000fcff3a0008003700f88f420002003c006a
:100b10008000eb00000005008100d1000080d300c0
:100b20008502e800fcff3a000300e00002003b0001
:100b300060001000e0801800000006000001be0008
:100b40001b0007000470a70003f0a10003f8a30036
:100b500013003a006509b1001000320009003500a9
:100b60006928e100020035000100280000000500ae
:100b700000004000818048008502e900fcff3a0047
:100b800000000600f88f4200050035008100d1000a
:100b90000080d3008502e800fcff3a000000060058
:100ba0008000eb00000005006011b8006a03370008
:100bb000c70ade00f107b200f50fb20008003200ec
:100bc000e1cf4200020032000170a00024000500c5
:100bd000810f700001003200040805004400050088
:100be000810f700002003a00140005008502e90040
:100bf0000000400081c04800fcff3b000170a000e5
:100c00002400050007f82700078361000638e1008b
:100c100004003a00f7072000878361008703710012
:100c200001003a0003f0a200889fbe008a9fbe0028
:100c30008c9fbe00470ade000480a100c71ade00b8
:100c40000580a100070028000785600087856100f6
:100c5000f70f20000720e1009e0032000728e10086
:100c60009c003200010678000400e000b40032006d
:100c7000f7072000878060000170a0000500e000f9
:100c8000c0003200f7072000878161000370a000d8
:100c9000050652000f003a000b50e1000b00320035
:100ca0000308e10002003a000200e1007e00320089
:100cb0000204500083845800040031000001fd004c
:100cc0008101fd008402fd008a05fd006044b8003a
:100cd000210037000520e10005003d000001fd0076
:100ce0008101fd008402fd008a05fd000506520019
:100cf0007a60e100050035000170a1004722dd00a7
:100d0000848070008a807000630037006044b800ff
:100d1000ef02660007ff2f00070666000500e000ef
:100d200006003400f08312008714dd000511de0098
:100d3000071bdd00060171008519de007060e1000f
:100d4000050035000904780082047800030178006a
:100d50008001eb00700656000b50e10003003a00e2
:100d60000200400083804800040037006004140043
:100d7000e0841c0002005800838058000188a30012
:100d8000060032008100d1000080d3008984d300a6
:100d90000884d3000402e800270037000178a3008c
:100da00025003a000100e000030032008186cf00f8
:100db000698656000a0037008c0020000000e00021
:100dc00004003a0009007800880478000004eb0071
:100dd000700252008086cf000d0646000c06e90026
:100de0007060e1000600350080007800090078009e
:100df000880478000004eb00700656007002520070
:100e00000c00e0000c0034008c08dd00f00316003c
:100e10000703de00868070000c00dd00074bde005b
:100e2000060070008c4cdd000743de0086847400f1
:100e30000c44dd000c0252006120e100200035006e
:100e4000610160000700280087816400f7ff270028
:100e500087836400070374000300e000060032008b
:100e600082037300040032000000e800e0804800c4
:100e70000188a3000e003a00f70f20000720e100d0
:100e80004a003d000170a1004722dd008100720090
:100e90008a8070000000be004f06be004f05be00f5
:100ea0004f04be00000006006000b800faff3700e3
:100eb0008100d1000080d3000402e800eeff37007b
:100ec0000401780089017400a10107008a80700084
:100ed000f1ff3700f7010700070278000001fd006d
:100ee0008101fd00f301070087027800850372008d
:100ef0000778a300040032000001fd008101fd001d
:100f000006020700e4ff3700850362000768a300bc
:100f1000080032000b50e10003003200f0ff2f0008
:100f2000f1ff2700dcff37000001fd008101fd001b
:100f3000d9ff37000468a300d7ff3200faff37005b
:100f4000f8ff2700888360000b003a000000e000f3
:100f500009003a00830364008283730002003200b8
:100f60000200be00ccff37000b50e100ceff3a007c
:100f70000200be00c8ff370014002000810064009a
:100f80003eff3700f8ff27008883610004003a0025
:100f90000200e00002003a008c007800beff37003b
:100fa000150020008301640039ff370001f8270095
:100fb0000000200081007500b7ff3700889fbe0049
:100fc0008a9fbe008c9fbe001b0020000202be0054
:100fd0000586680006002800060666004709de0050
:100fe000f20fb200820032000243e80080003200bb
:100ff000c729de00f30fb2007d0032000343e80092
:101000007b003200f107b2000170a000f507b200ca
:101010000570a000c708dd004903de00868070006f
:101020004700dd00c72add004923de00868272000a
:101030004722dd000305510004035000858358005a
:101040000300310000004000818048000a05e900eb
:101050008c1f78008a9fbe000400500085805800d5
:101060000402420085824a0000004000818048005e
:101070000005eb000004be006033b8000406be00ab
:101080000d48e10056003100110009004dccd80098
:101090000c01b8000d02b8008481410060824a0052
:1010a0008283530003045c0084845c0060055d005f
:1010b0000a00e00025003a00800578000d40e100bc
:1010c000490031008800780007007800110009000d
:1010d0004d88d8000c01b8000d02b8008481410091
:1010e00060824a006003110083835b0004045c009b
:1010f000e0845c000900e00021003a004f01be00de
:101100000300e0002b003200e301600007067300db
:101110008c81710001003200640070004200de002a
:101120004e5edd000c007000c258de0001e0a00041
:1011300083010700cf017800818071004f06be0057
:101140004f05be004f04be00000006008c83430024
:101150000d044c00e0844c0060054d000000e900e7
:101160000a00e000d4ff32008c8343000d044c00e1
:10117000e0844c0060054d000000e900ceff370020
:101180000c0343008d834b0060044c00e0844c0052
:101190000000e9000900e000d8ff32000c03430022
:1011a0008d834b0060044c00e0844c000000e9009b
:1011b000d2ff37004200de004e5edd000c00700002
:1011c000c258de0001e0a000cf0178000300e0007b
:1011d000daff320060001000e0801800d7ff37000f
:1011e000f0ff2f00aaff3700f0ff2f00b9ff3700f4
:1011f0000404be002f010700870678000004fd00ec
:101200008104fd002b010700078366000678a30018
:10121000030032000960a7000800be002c00370060
:101220000d78a300020032000800be00280037003d
:101230000778a30026003a0001f0a10009f0a10000
:101240000668a30003003200f1ff2700f0ff2f0023
:10125000baff37000d68a300030032000800be008b
:101260008c807000b5ff37000768a30007003a00c4
:101270000648a30003003200f1ff2700f0ff2f0013
:10128000aeff37000d48a300030032006000b80035
:101290008c807000a9ff37000748a30004003200cb
:1012a00001f82700000020008c807000a3ff3700a9
:1012b000760107000004fd008104fd0002057800ae
:1012c000720107000802be008a01780059ff37004a
:1012d0000160a000120220004283880097ff3700bf
:1012e0000100e000120032000500e00010003200b2
:1012f000889fbe008a9fbe008c9fbe000006eb0048
:1013000001f8a3000300320060001000e080180024
:101310000cf0a00005f8a3000300320060021200e8
:10132000e0821a000cf0a2008005eb0041ff3700bc
:101330006000b80002000500038368000700280071
:1013400007036300470ade000480a100c71ade001d
:101350000580a100f70f20000720e10042003200c5
:101360000728e10040003200889fbe008a9fbe002f
:101370008c1f7800f107b200f307b2000400e00010
:10138000640032000170a0000500e0006800320037
:101390000370a00085054200eb07b1000204b8000d
:1013a0000302b8008484440060854a00020ab80041
:1013b000848444000a854a00030ab80004054500f5
:1013c000040033000804d0008984d2000a85d200ca
:1013d0008b05e9006158e1003d0035000210200056
:1013e000090161000308200089816100f7072000de
:1013f0008783640008867300c84cde00c853dd0094
:10140000878474004855de000300e00006003200c7
:1014100082037600040032008904e80060054d0074
:101420000a88a3000c003a00f70f20000758e100db
:1014300044003d000a70a100c75ddd000a8575000b
:101440008a007300090078004f0678004f05be003f
:101450004f04be00000006000a05d1008984d300b5
:101460008b05e800f0ff3700881f7800060478003d
:1014700090000700070278000001fd008101fd00d7
:101480008c00070087027800850372000778a300ac
:10149000050032000001fd008101fd009f000700f2
:1014a0004f04780000000600850372000748a3007f
:1014b00003003200f0ff2f00f1ff2700f8ff370094
:1014c0000000200001f8270088807000f4ff37003a
:1014d000880178004848dd00808171004848de00be
:1014e000c850dd0001007000c850de00060478001e
:1014f0000b0178001600070088807000d2ff3700cb
:101500000500e00005003200170020003a00070047
:101510009dff370081037000f9ff3a0086007800d4
:101520004f0678004f05be004f04be0000000500c6
:1015300083037100f9ff3200270020002e0007000e
:1015400094ff370001f8270086807000f4ff370011
:101550000100e00026003200610111007810e10076
:1015600023003c006022b8007010e1000400350048
:1015700080027800010078008000eb0070015100cb
:101580000200e0000900340070031100062add00ab
:10159000822ade008603dd00878272000200de0000
:1015a000860bdd00070070008208de008481710078
:1015b000f4ff270004826200848171000400280087
:1015c000848262006102600005f0a600000006004f
:1015d00004827100070032000000e800e08048004b
:1015e000000006000002be006000b800efff3700f8
:1015f0006000b80000000600889fbe000004eb00f9
:101600006138e10016003a000100e00008003a00ed
:10161000c800de004800dd00880020000100e00076
:1016200003003a00c800de004800dd006804440002
:101630008184cf00e9845400060034008908dd006d
:10164000f08314008703de00878070000900dd004e
:1016500009044400610214004f04be0000000600ab
:101660000300e00008003a00c811de004811dd0068
:10167000880020000300e00003003a00c811de00eb
:101680004811dd00680444008384cf00e9845400dd
:10169000060034008919dd00f08314008713de0092
:1016a000878171000911dd0009044400e102140082
:1016b000e9ff37002700200001f0a70017002000f5
:1016c000470bde00f60fb200040032000643e800cc
:1016d0000a0032004702b300000006000103780050
:1016e000f607b2000603700002003a000703b300d9
:1016f000000006008702b300000006000103780026
:10170000f607b20006037000020032000770a00066
:10171000000006000760a000000006000478a30097
:10172000040032000578a300030032000168a30022
:1017300001003a000200be000160a00000000600a7
:1017400081017000270032008002eb0001f8a30045
:101750000300320060001000e08018001500200037
:10176000f40720000202420020003400f7032000aa
:1017700087036000060420000003630002082000c5
:10178000000161004700de00c909dd000080710032
:10179000c708de000600e000080032008703710081
:1017a000060032001000b0000180b0000188a300e4
:1017b00002003200c108de000402e800f107b200b6
:1017c000f30f20000320e10003003d004722dd006d
:1017d000810072002900370001f827000000eb00ab
:1017e000260037006000b800000006006802120002
:1017f0007f20e100020034006000b8001f003700c5
:101800006011b8007020e10004003500800178000c
:10181000010078008000eb00700252000400e0003c
:1018200009003400f00312000719dd008419de00fe
:101830000703dd00868171000400de00070bdd0078
:10184000060070008408de00f7ff27008383630032
:1018500087037100060028000303630007003200bd
:101860000700e00003003a0061016000028173009c
:10187000020032001000b0000180b0000500a60098
:101880000000060001f0a000000006004f0ade0084
:101890004709de00f107b200f20fb2000b00320080
:1018a000f207b1000170a000c708dd00c901de0029
:1018b000838070004700dd000400a60000000600e1
:1018c00060001000e080180000000600810f70002a
:1018d00001003a00000006008182cf000500e00010
:1018e00010003e008082cf00ee8242007028e100ae
:1018f0000400390007003e00800078000000eb0083
:101900000e003700708312008600de000500dd0047
:101910000a003700708352008600dd000000eb00f3
:1019200006003700e28252008508dd007083120055
:101930000603de00868070000500dd007507b0003c
:101940000501ea000400a600000006006000100087
:10195000e080180000000600889fbe008a9fbe003d
:1019600000827000040271000482710026003200bf
:101970000004be000200be006011b8006b09200028
:10198000950220000182cf000a0039000541b10014
:101990000082cf00070039000541b1000982cf0065
:1019a000040039000541b1000882cf000100390070
:1019b0000541b10005425200120032000a003b000e
:1019c00082817100610164008100d1000080d30038
:1019d0008984d3000884d3008b05e8000442e80022
:1019e000f7ff3a00070037000804440089844c00e0
:1019f00000004800818048008b05e9000442e900ae
:101a0000f9ff3a00030007004f05be004f04be0077
:101a10000000060081002000618055000b003d00a1
:101a20000b00200061fe2f000100e1001d003400ca
:101a300082817100610164008904d1000884d300af
:101a40000000e800faff3a00710020006100640025
:101a500003007000020060000900320061044400cd
:101a6000e0844c000988a500050032008b05e800e1
:101a70006808e10002003a008904d1000884d3001c
:101a8000f20f20000258e10005003d00c75ddd00b7
:101a9000f907b20089807500080078000000060090
:0c1aa0000bf827008b0078000000050008
:020000040000fa
:101aac000200fa00000f78001e007800e10f5000d1
:101abc0009003200e10f500005003900e20f500020
:101acc0007003200e30f5000070032000800370017
:101adc0001eba8000600370011eba800040037004a
:101aec0021eba8000200370031eba8000000000039
:101afc000080fa00000006000400fa00000f7800d5
:101b0c000e80e800010878001e007800e10f5000fc
:101b1c000c003200e10f500005003900e20f5000bc
:101b2c000d003200e30f500010003200140037009b
:101b3c000e80e8009000780021588800062bef00fa
:101b4c000f0037000e80e80090007800a158880044
:101b5c00162bef000a0037000e80e800900078008a
:101b6c0021598800262bef00050037000e80e80075
:101b7c0090007800a1598800362bef00000000007f
:101b8c000080fa00000006000400fa00000f780044
:101b9c000e80e800010878001e007800e10f50006c
:101bac000b003200e10f500005003900e20f50002d
:101bbc000b003200e30f50000d0032001000370014
:101bcc000e80e80090007800615888000c00370007
:101bdc000e80e80090007800e1588800080037007b
:101bec000e80e800900078006159880004003700ee
:101bfc000e80e80090007800e15988000000000099
:101c0c000080fa00000006000c00fa00889fbe005d
:101c1c008a1f780068044700004c78006a0047006f
:101c2c00010878008000eb000e80e80001087800c5
:101c3c000000eb00000f78006000b800640447005f
:101c4c00008cbe0068004700104078000080fb004c
:101c5c00c400dd000020210000804000100078004e
:101c6c00e10060000e80e800010878000e80e800ba
:101c7c00100078000000e0001e003a0068004700e9
:101c8c00104078000080fb00c400dd000020210023
:101c9c000080400090007800c0ff210000806000b0
:101cac004200de008000eb006a0147001201780060
:101cbc000089be006a00470010007800e400400074
:101ccc00910078000100a100640040000108780038
:101cdc0068004700104078000080fb00c400dd0065
:101cec00002021000080400010007800620f60008e
:101cfc006c00370068004700104078000080fb0043
:101d0c00c400dd000020210000804000100078009d
:101d1c006104b800c0ff2100010020000805780014
:101d2c0009047800800478008100780009006500bf
:101d3c008100640081037800000378000600be0077
:101d4c0064034700008bbe006400470090009000c5
:101d5c0010007800c000dd00000020006a0347007e
:101d6c0016037800008bbe006a0047001000780054
:101d7c001004780090049000680047001040780030
:101d8c000080fb004400dd008080e8000020210082
:101d9c0000804000100078006103b800f0ff2000c4
:101dac000100200006057800070378008003780006
:101dbc0081007800070065008100630081027800d3
:101dcc00000278004628dd00ca20de008100700089
:101ddc004620dd0008004000898048006a02470068
:101dec0014027800008abe006a00470010007800d8
:101dfc0010037800900390006800470010407800b2
:101e0c000080fb004400dd00e400400000202100c5
:101e1c0000804000100078004a00de006102b8002b
:101e2c00f0ff2f0001002000040478000502780068
:101e3c008002780081007800050064008100620057
:101e4c0081017800000178000200be00060040000d
:101e5c00878048006a014700120178000089be00a3
:101e6c006a00470010007800e40040009100780000
:101e7c000100a000640040000108780068004700e1
:101e8c00104078000080fb004400dd00e4004000be
:101e9c0000202100008040009000780000202000ed
:101eac00008f60001e0078000000e0000800320087
:101ebc006a00470010007800e400400091007800b0
:101ecc000110a00064004000010878009a0037005f
:101edc006a00470010007800e40040009100780090
:101eec000110a10064004000010878006a0047005e
:101efc001000780066004000100178006800470070
:101f0c00104078000080fb004400dd00e60040003b
:101f1c000020210000804000100078000040780074
:101f2c00004978006a004700100078006600400005
:101f3c00100078000000e800e800470091407800ad
:101f4c008180fb00c408dd00668140000120210077
:101f5c008100410091007800c808de0081407800c3
:101f6c00014878006a0047001000780066004000c5
:101f7c00100078000080e800e800470091407800ed
:101f8c008180fb00c408dd00688140000120210035
:101f9c008100410091007800814078000148780070
:101fac006a004700100078006600400010007800be
:101fbc0063004000e8004700914078008180fb00fe
:101fcc00c408dd006881400001202100810041002f
:101fdc0091007800c808de00814078000148780044
:101fec006a0047001000780066004000100078007e
:101ffc0064004000e8004700914078008180fb00bd
:10200c00c408dd006a8140000120210081004100ec
:10201c009100780081407800014878006a00470000
:10202c001000780066004000100078006500400049
:10203c00e8004700914078008180fb00c408dd0077
:10204c006a8140000120210081004100910078004c
:10205c00c808de0081407800014878006a0047001b
:10206c001000780066004000100078006600400008
:10207c00e8004700914078008180fb00c408dd0037
:10208c006c8140000120210081004100910078000a
:10209c0081407800014878006a0047001000780001
:1020ac00660040001000780067004000e800470020
:1020bc00914078008180fb00c408dd006c814000f9
:1020cc00012021008100410091007800c808de0049
:1020dc008140780001487800680047001040780083
:1020ec000080fb004400dd00e400400000202100e3
:1020fc000080400010007800004078006f406000c5
:10210c006f4060006f406000ea004700910078006b
:10211c000080fb006f0060004200dd006481400025
:10212c009201780032fc2f000281610002017000e4
:10213c0064804000020878004f0578004f04be0010
:10214c000080fa00000006000400fa00000f78007e
:10215c000e80e800010878000e80e800100078007e
:10216c006400400010007800610060000000e00096
:10217c0018003a000e80e8001000780090009000e3
:10218c001000780080007800f07f20000080600054
:10219c00c200dd001e007800010878001e80e800f7
:1021ac008000eb00010878009e00780064804000fd
:1021bc008e80e80091007800e48040009100780067
:1021cc00c208de00efc060008180fb0001087800cf
:1021dc002a0037000e80e800100078009000900074
:1021ec00100078004008de0080007800c0ff21005d
:1021fc0000806000800078003100b3001e00780081
:10220c00010878001e81e8000e80e80010007800bc
:10221c009000900010007800ca09dd004600de0036
:10222c0000807100c608de0080007800f0ff2000fe
:10223c0000806000000978009e00780064814000f6
:10224c000e80e80010007800640040001000780058
:10225c004200de006f4060008081fb000e80e800d1
:10226c0010007800900090001000780000007800ba
:10227c004a00dd0000804100000978000e80e80073
:10228c001000780066004000100078000000e000ac
:10229c004b0032009e017800668041008e80e80081
:1022ac0091007800e6804000910078008100e80001
:1022bc00914078008180fb004809dd008e80e800a9
:1022cc0091007800e6804000910078009140780001
:1022dc008180fb0081004100010878009e0078009d
:1022ec00688040008e80e80091007800e680400015
:1022fc0091007800e3804000914078008180fb00e1
:10230c004809dd008e80e80091007800e6804000ee
:10231c00910078008180e800914078008180fb007a
:10232c0081004100010878009e0178006a8041001c
:10233c008e80e80091007800e680400091007800e3
:10234c00e5804000914078008180fb004809dd0069
:10235c008e80e80091007800e680400091007800c3
:10236c00e4804000914078008180fb0081004100b6
:10237c00010878009e0078006c8040008e80e80098
:10238c0091007800e680400091007800e7804000e2
:10239c00914078008180fb004809dd008e80e800c8
:1023ac0091007800e680400091007800e6804000c3
:1023bc00914078008180fb00810041000108780089
:1023cc000080fa00000006000000fa002468a90052
:1023dc000c24ef0001208000f08f2f0000806000a3
:1023ec0000a0a00000208800000000000120800058
:1023fc00000e20008080600000082000808f5000bc
:10240c00faff3a003000200080208800801a240057
:10241c009020880030002c003020880070002000b4
:10242c00a02088000024ef000004a800c120800038
:10243c00c0ff2f0000806000c0208800c1208000f9
:10244c0030ff2f0000806000c0208800c120800079
:10245c00f0fc2f0000806000c020880081218000eb
:10246c0000fe2f000100700080218800a021800058
:10247c007f006000a0218800c02180007f006000e8
:10248c00c021880081218000c0ff2f0000806000e7
:10249c0080218800a1218000c0ff2f0000806000f7
:1024ac00a0218800c1218000c0ff2f0000806000a7
:1024bc00c02188003224ef003624ef003a24ef00cc
:1024cc003064a9003464a9003864a900002280009b
:1024dc00ff006000000a2300010070000022880049
:1024ec0020228000ff0060000066220001007000c6
:1024fc0020228800402280007f0060000090a00015
:10250c004022880001228000c0ff2f000080600064
:10251c000022880021228000c0ff2f000080600074
:10252c002022880041228000c0ff2f000080600024
:10253c00402288004224ef004624ef004a24ef009a
:10254c004064a9004464a9004864a90001218000ea
:10255c0000ff2f00008060003000b30000218800d5
:10256c0001218000f0f02f00008060000060a000ce
:10257c000021880001218000f00f2f008080600076
:10258c000050200001007000002188000004a90008
:10259c0030e4a80031e4a80032e4a80033e4a90038
:1025ac0034e4a90035e4a90036e4a90037e4a90015
:1025bc0081218000c0ff2f000080600080218800f6
:1025cc0081218000f0cf2f000080600080218800e6
:1025dc0091218000c0ff2f000080600090218800b6
:1025ec0091218000f0cf2f000080600090218800a6
:1025fc00a1218000c0ff2f0000806000a021880076
:10260c00a1218000f0cf2f0000806000a021880065
:10261c00b1218000c0ff2f0000806000b021880035
:10262c00b1218000f0cf2f0000806000b021880025
:10263c002024ef002224ef002824ef002a24ef00ae
:10264c000a24a90001208000f08f2f000080600078
:10265c00002088000000000001208000000e2000f7
:10266c00008060000000e000fbff3a0020652100c4
:10267c008d0107006066210095010700a06721000d
:10268c009d010700e0682100a4010700006a2100f9
:10269c00ac0107002468a8000c24a8000ca4a80016
:1026ac000080fa00000006000000fa002044200020
:1026bc00800078000000eb0033fd070000202100b3
:1026cc00800078000000eb000bfd07000000eb0021
:1026dc00f3fc07000080fa00000006000000fa007e
:1026ec0000442000800078002000200026fd070018
:1026fc00002021008000780020002000fefc070054
:10270c0020002000e6fc07000080fa000000060014
:10271c000400fa008e80e800800878000000eb00ce
:10272c00000f780025000700e40f5000080032006d
:10273c000e80e80010007800e10f50000400320019
:10274c000e80e80010007800e40f500016003a00ec
:10275c000e80e800100078000040780067406000b0
:10276c000080fb00670060004800dd000220800054
:10277c00f18f2f00810061000100700000208800a3
:10278c0000000000002080004500de006740600073
:10279c000080fb008e80e80091007800810f5000d3
:1027ac00f8ff3a000200370010002000000f7800fc
:1027bc001e0078000080fa00000006000000fa00fd
:1027cc00002080004500de00674060000080fb00b8
:1027dc000080fa00000006000c00fa0068014700b7
:1027ec00000978006a004700010878000000eb003f
:1027fc00000f7800014320000e80e80001087800eb
:10280c008040eb0066004700014878006a004700f2
:10281c001000780064004000100078004200de00d8
:10282c006f4060000080fb00e80f50000100340096
:10283c001e00a0008000eb00640047000108780037
:10284c00340037000e80e8001000780090407800cb
:10285c0000c8b30000c060000004e0002300320098
:10286c000e80e8001000780010407800684060008e
:10287c000004e0001d003a00012021006400470024
:10288c00100078004400dd0000804000ea004700a2
:10289c00910078002cfe07006800470010007800bb
:1028ac0000407800e34060000e80e80010007800e3
:1028bc00e3c0600090417800c2cfb30002c1610058
:1028cc0081407100014878000e80e800100078000b
:1028dc00904078000134a0000148780011c0b3008a
:1028ec0066004700014878000e0037000e80e800b3
:1028fc00100078008000e8000e80e80001087800e5
:10290c0064004700100078008000e8006400470075
:10291c00010878006400470010007800e20f5000b6
:10292c00c8ff360066004700104078000004a20083
:10293c000004e000020032009e007800638f7000fb
:10294c001e0078000080fa00000006000800fa0063
:10295c00e6004700800878008040eb000e80e8001d
:10296c0001487800660047001000780066004000bf
:10297c00100078000000e00003003a000e80e80030
:10298c0010407800340037006400470001218000bb
:10299c000108780064004700100078000000e00097
:1029ac002b0032000000eb00000f780023003700f2
:1029bc00e0828000e4004700910078000008de000f
:1029cc0061006000004078000004e0000f0032005d
:1029dc00e082800000407800e6004700910078001b
:1029ec0089fc0700e0828000110020000008dd0057
:1029fc000080ea00012180000100600000218800b5
:102a0c0011c0b3000e80e80001487800e08280001d
:102a1c000000e800e0828800e0828000ef0f5000a8
:102a2c00010036005c30ef000e80e80010407800aa
:102a3c000004e00005003a001e0fe8001e007800bc
:102a4c00ef0f5000daff36000100370000000000e5
:102a5c000e80e800104078000080fa0000000600ac
:102a6c000000fa00502080004d00de006140600044
:102a7c000080fb0000f0a7000000ea000000ea0064
:102a8c004f00de00004078000080fa0000000600d5
:102a9c000000fa00502080004b00de006140600016
:102aac000080fb0000f0a7000000ea000000ea0034
:102abc004f00de00004078000080fa0000000600a5
:102acc000000fa00502080004900de0061406000e8
:102adc000080fb0000f0a7000000ea000000ea0004
:102aec004f00de00004078000080fa000000060075
:102afc000200fa000040eb00004f78000ec4bf004b
:102b0c000004e000050032000ec4bf000004e00029
:102b1c000200350010c0b300004f78001e40780052
:102b2c000080fa00000006000000fa00502080002f
:102b3c004c00de00614060000080fb0000f0a7004c
:102b4c000000ea000000ea004f00de0000407800c0
:102b5c000080fa00000006000000fa0050208000ff
:102b6c004a00de00614060000080fb0000f0a7001e
:102b7c000000ea000000ea004f00de000040780090
:102b8c000080fa00000006000200fa000040eb0092
:102b9c00004f78000fc4bf000004e00005003200b5
:102bac000fc4bf000004e0000200350010c0b300e9
:102bbc00004f78001e4078000080fa0000000600ec
:102bcc000600fa000000eb00000f780064004700dc
:102bdc000121800001087800640047001000780093
:102bec000000e000170032008000eb000e80e800cf
:102bfc00010878000f0037000e80e8009000780084
:102c0c0064004700100078000100de0061006000e5
:102c1c00004078000004e000010032001e0fe800c4
:102c2c000e80e800100078008000e8000e80e800bc
:102c3c00010878000e80e80010007800ef0f5000bb
:102c4c00edff36001e007800004078000080fa008e
:102c5c00000006000000fa000ac4a9000cc4a80079
:102c6c0001208000f08f2f00008060000080a00009
:102c7c00002088000000000001208000000e2000d1
:102c8c008080600000022000808f5000faff3a0024
:102c9c000080fa00000006000000fa00880107001e
:102cac000080fa00000006000200fa00000f780015
:102cbc001e007800908288000080fa000000060058
:102ccc000000fa00810107000080fa0000000600f5
:102cdc000200fa00000f78001e007800a082880025
:102cec000080fa00000006000000fa007a010700dc
:102cfc000080fa00000006000200fa00000f7800c5
:102d0c001e007800b08288000080fa0000000600e7
:102d1c000000fa000080fa00000006000200fa0031
:102d2c00000f78001e007800c08288000080fa0036
:102d3c00000006000000fa006a0107000080fa009b
:102d4c00000006000200fa00000f78001e00780058
:102d5c00d08288000080fa00000006001400fa00ff
:102d6c0070014700000978007200470001087800e4
:102d7c0003000900001feb008e00b1006e0047003d
:102d8c000e08780072004700100078009000900048
:102d9c0010007800680147000089be0072004700ef
:102dac001000780064004000104078006140600022
:102dbc000080fb0061006000ec004700910078008f
:102dcc000100a100810070006c0047000108780030
:102ddc007200470010007800650040001040780039
:102dec00614060000080fb0061006000000040005a
:102dfc00ec004700910078000110a10081007000e8
:102e0c006c00470001087800720047001000780041
:102e1c0066004000104078006f4060000080fb00ae
:102e2c006f0060004200dd00ec00470011017800eb
:102e3c0031fc2f0081006100810070006c004700a4
:102e4c00010878006e00470090007800720047007f
:102e5c00100078006700400010407800804878002f
:102e6c006e004700100078000000e800f2004700f8
:102e7c0091007800e880400091407800014878008b
:102e8c006e004700100078000080e800f200470058
:102e9c0091007800e980400091407800014878006a
:102eac006e0047001000780063004000f2004700fd
:102ebc0091007800ea804000914078000148780049
:102ecc006e0047001000780064004000f2004700dc
:102edc0091007800eb804000914078000148780028
:102eec006e0047001000780065004000f2004700bb
:102efc0091007800ec804000914078000148780007
:102f0c006e0047001000780066004000f200470099
:102f1c0091007800ed8040009140780001487800e5
:102f2c006e0047001000780067004000f200470078
:102f3c0091007800ee8040009140780001487800c4
:102f4c00680047008000780070004700100078008f
:102f5c0021fe070000f0a7000000ea000000ea00d4
:102f6c004f00de00004078000080fa0000000600f0
:102f7c001400fa00f2004700800878000040eb00d3
:102f8c00004f7800e1004700070009008058eb0073
:102f9c008e00e80070004700010878006a004700c6
:102fac006afe07000004e000680032006a00470077
:102fbc009000900010007800720147001201780018
:102fcc000089be006e004700100078006140600070
:102fdc0080407800720047001000780064004000c8
:102fec00014878006e004700100078006200600015
:102ffc000000e0000600320072004700100078006c
:10300c0021c0b3006500400001487800050037007e
:10301c00720047001000780011c0b300650040003a
:10302c00014878007000470010007800904078004c
:10303c0072004700100078006700400001487800db
:10304c0070004700100078000000e8009040780005
:10305c0072004700100078006800400001487800ba
:10306c0070004700100078000080e8009040780065
:10307c007200470010007800690040000148780099
:10308c00700047001000780063004000904078000a
:10309c0072004700100078006a0040000148780078
:1030ac0070004700100078006400400090407800e9
:1030bc0072004700100078006b0040000148780057
:1030cc0070004700100078006500400090407800c8
:1030dc0072004700100078006c0040000148780036
:1030ec0070004700100078006600400090407800a7
:1030fc0072004700100078006d0040000148780015
:10310c007000470010007800670040009040780085
:10311c0072004700100078006e00400001487800f3
:10312c006e004700100078004200de006f40600027
:10313c008040780072004700100078006600400064
:10314c000148780010c0b300004f78001e40780092
:10315c000080fa00000006000000fa0050208000f9
:10316c004d00de00614060000080fb0000f0a70015
:10317c000000ea000000ea004f00de00004078008a
:10318c000080fa00000006000000fa0050208000c9
:10319c004b00de00614060000080fb0000f0a700e7
:1031ac000000ea000000ea004f00de00004078005a
:1031bc000080fa00000006000000fa005020800099
:1031cc004c00de00614060000080fb0000f0a700b6
:1031dc000000ea000000ea004f00de00004078002a
:1031ec000080fa00000006000600fa000000eb0068
:1031fc00000f78006400470001218000010878006e
:10320c0064004700100078000000e0001700320056
:10321c008000eb000e80e800010878000f003700fa
:10322c000e80e800900078006400470010007800e1
:10323c000100de0061006000004078000004e00046
:10324c00010032001e0fe8000e80e800100078002c
:10325c008000e8000e80e800010878000e80e8008d
:10326c0010007800ef0f5000edff36001e007800c4
:10327c00004078000080fa00000006000000fa0010
:10328c000ac4a9000cc4a80001208000f08f2f00f4
:10329c00008060000080a00000208800000000007a
:1032ac0001208000000e20008080600000022000c1
:1032bc00808f5000faff3a000080fa0000000600f0
:1032cc000000fa000080fa00000006000000fa007e
:1032dc000080fa00000006000000fa000080fa00ee
:1032ec00000006000000fa00c008210011c0b30065
:1032fc00014878000080fa00000006000000fa0087
:10330c0021e3a8000080fa00000006000000fa008b
:10331c0021e3a9000080fa00000006000000fa007a
:10332c002023a8000080fa00000006000000fa002c
:10333c002023a9000080fa00000006000200fa0019
:10334c00000f78001e007800e10f50000b003200d7
:10335c00e10f500003003900e20f50000e00320064
:10336c00140037004119800000fc2f000080600021
:10337c00e001b300401988000e00370041198000ad
:10338c0000fc2f0080806000d00320000100700042
:10339c0040198800070037004119800000fc2f00fd
:1033ac0080806000e003200001007000401988005c
:1033bc00000000000080fa00000006000400fa0083
:1033cc008e80e800800878000e80e80010007800fd
:1033dc00e20f500003003e0001188000010f78003e
:1033ec0001003700000000001e0078000080fa0089
:1033fc00000006000400fa008e80e80080087800c7
:10340c000019800000407800614060000080fb00e3
:10341c0000f0a7000000ea000000ea004f00de0008
:10342c00004f78001e4078000080fa000000060073
:10343c000000fa000070ef000170ef000270ef0066
:10344c00fd0107000370ef000470ef000670ef0041
:10345c000770ef0000c4290040808800900921000b
:10346c008040eb0001487800d00921008040eb003f
:10347c0001487800500a21008040eb000148780098
:10348c003870ef003970ef003e30ef004070ef0005
:10349c003270ef003370ef003470ef003570ef00d6
:1034ac006000b80050808800618088000e30ef000a
:1034bc001030ef004430ef004670ef003630ef0074
:1034cc00a00821008040eb0001487800b0082100e2
:1034dc008040eb0001487800c00821008040eb00e0
:1034ec0001487800d00821008040eb0001487800aa
:1034fc00e00821008040eb0001487800f008210032
:10350c008040eb0001487800100921008040eb005e
:10351c0001487800200921008040eb000148780028
:10352c00000921008040eb0001487800300921009f
:10353c008040eb0001487800400921008040eb00fe
:10354c00014878000080fa00000006000000fa0034
:10355c00889fbe0069ff07000000eb0077ff0700a3
:10356c006eff07003e30ef0003003700f081800053
:10357c000000e800f0818800f1818000703e20009e
:10358c00808f5000f9ff360068ff07000000000034
:10359c000000eb0097ff07000004a2000004e0000d
:1035ac00fbff3a000000eb0084ff0700c08188009d
:1035bc00c181800000f92900808f50001500360071
:1035cc00c08180008000eb0074f50700d2cc2c0089
:1035dc00c3ec230055f707000004be0020828000d6
:1035ec008000eb006df50700a299290093f12300f0
:1035fc004ef707000001be000800be0087f507006b
:10360c004bf50700000078002082880020828000a3
:10361c00c0818800c1818000d081800080805000f2
:10362c00a00f2000808f500003003e00d08180004e
:10363c00c081880002003700c0818000d0818800e2
:10364c00c181800000f92900808f500002003e00eb
:10365c003830ef00b2003700c1818000000726002f
:10366c0080804000300f2000808f500002003e0010
:10367c003830ef00aa003700c18180000007260017
:10368c0080804000601e2000808f500003003e00b0
:10369c0060062000c0818800a1003700c181800035
:1036ac000007260080804000902d2000808f500065
:1036bc0003003e0090092000c0818800980037006c
:1036cc00c18180000007260080804000c03c2000a3
:1036dc00808f500003003e00c00c2000c081880089
:1036ec008f003700c18180000007260080804000d9
:1036fc00f04b2000808f500003003e00f00f2000a4
:10370c00c081880086003700c18180000007260038
:10371c0080804000205b2000808f500003003e0022
:10372c0020132000c08188007d003700c1818000fb
:10373c000007260080804000506a2000808f5000d7
:10374c0003003e0050162000c08188007400370032
:10375c00c181800000072600808040008079200015
:10376c00808f500003003e0080192000c08188002b
:10377c006b003700c181800000072600808040006c
:10378c00b0882000808f500003003e00b01c200049
:10379c00c081880062003700c181800000072600cc
:1037ac0080804000e0972000808f500003003e0096
:1037bc00e01f2000c081880059003700c1818000c3
:1037cc00000726008080400010a72000808f50004a
:1037dc0003003e0010232000c081880050003700f9
:1037ec00c1818000000726008080400040b6200088
:1037fc00808f500003003e0040262000c0818800ce
:10380c0047003700c18180000007260080804000ff
:10381c0070c52000808f500003003e0070292000ee
:10382c00c08188003e003700c1818000000726005f
:10383c0080804000a0d42000808f500003003e0008
:10384c00a02c2000c081880035003700c181800089
:10385c000007260080804000d0e32000808f5000bd
:10386c0003003e00d02f2000c08188002c003700c0
:10387c00c1818000000726008080400000f32000fa
:10388c00808f500003003e0000332000c081880070
:10389c0023003700c1818000000726008080400093
:1038ac0030022100808f500003003e003036200093
:1038bc00c08188001a003700c181800000072600f3
:1038cc008080400060112100808f500003003e007a
:1038dc0060392000c081880011003700c181800050
:1038ec00000726008080400090202100808f50002f
:1038fc0003003e00903c2000c08188000800370087
:10390c00c1818000000726008080400090202100ab
:10391c00808f500002003600f03f2000c0818800ec
:10392c007afe07004f04be000080fa00000006007b
:10393c000000fa00a0022100d1092100660040001d
:10394c0001087800a002210000fc07000004e00040
:10395c004c003200a0022100100178009001900070
:10396c005018200001002000800f5100818f590059
:10397c0004003a003370ef000009210011c0b300bd
:10398c0001487800a00221001001780090019000fd
:10399c003013200001002000800f5100818f59004e
:1039ac0024003a00a00221006600400010007800bc
:1039bc000000e800104078008080fb00000f200021
:1039cc0080806000000f2000808f500019003a00aa
:1039dc0010c0b30042f0b700a00221006600400006
:1039ec00100078001040780080407800f0ccb300d4
:1039fc0080c0600000d0bf000043b20000c0700067
:103a0c0000f0b700a0022100660040001000780012
:103a1c000000e80010407800e340600001d0bf00d7
:103a2c0000417800c0cfb3000040610000c07000be
:103a3c0001f0b700a0022100100178009001900065
:103a4c000001200001002000800f5100818f5900df
:103a5c000c003a00a0022100660040001000780023
:103a6c00104078000080fb0061006000004078008e
:103a7c000004e0000200320055cea800010037001f
:103a8c0055cea9000080fa00000006000000fa00e4
:103a9c00889fbe008a9fbe008c9fbe00c0818000a4
:103aac008000eb003df4070002002c00f3472400db
:103abc003ff50700508088006180880000d0bf006f
:103acc00644060000004e00005003200508080007b
:103adc006180800001f0a200508088006180880025
:103aec00508080006180800002002500337c24001f
:103afc000ef60700edf307007080880081808800c7
:103b0c007080800081808000488ede00cf8ede00c9
:103b1c008c407800500921000148780070808000aa
:103b2c0081808000408dde00cf8dde008a407800e1
:103b3c00600921000148780070808000818080003d
:103b4c004809dd004804de0008047100c88cde0062
:103b5c00884078007009210001487800708080004e
:103b6c008180800080407800800921000148780025
:103b7c0000d0bf000042b2000004e00029003a006f
:103b8c0000d0bf00624060000004e00004003a0076
:103b9c0000d0bf00644060000004e000210032004f
:103bac000000eb00dafa07002202210010a5200029
:103bbc00010020000089be0020022100e40040002a
:103bcc00910078000110a100640040000108780009
:103bdc0020022100e4004000910078000100a000c8
:103bec00640040000108780020022100e40040003d
:103bfc001101780031fc2f00810061000140a00010
:103c0c0064004000010878002002210051092100c5
:103c1c0066004000010878002102210030002000dd
:103c2c00edfa07004f06be004f05be004f04be0064
:103c3c000080fa00000006000000fa0050718000bd
:103c4c004700de0061406000614060004400dd0020
:103c5c0001002100914078000144a10000c07000d7
:103c6c0000f0b700507180004600de00614060003b
:103c7c00614060004500dd000100210091407800aa
:103c8c000154a10000c0700000f0b70042d0bf008a
:103c9c000004a2000004e0004d003200b07080006f
:103cac004500de00614060006140600001002100c1
:103cbc00914078000104a10000c0700000f0b70032
:103ccc00b07080004600de00614060006140600022
:103cdc000040400001002100914078000114a10037
:103cec0000c0700000f0b700f07180004800de00ea
:103cfc0061406000614060004200dd000100210075
:103d0c00914078000124a10000c0700000f0b700c1
:103d1c00507180004d00de00614060006140600029
:103d2c004300dd0001002100914078000134a10026
:103d3c0000c0700000f0b700b07080004800de00da
:103d4c0061406000614060004600dd000100210020
:103d5c00914078000164a10000c0700000f0b70031
:103d6c00b07080004900de00614060004700dd005b
:103d7c0001002100914078000174a10000c0700086
:103d8c0000f0b700507180004a00de006140600016
:103d9c006140600011002100914078000104a100f5
:103dac0000c0700001f0b700b07080004700de006a
:103dbc006140600061406000004040001100210043
:103dcc00914078000114a10000c0700001f0b70010
:103ddc0000d0bf000080fb004400de0061406000aa
:103dec000080fb0000f0a7000000ea000000ea00e1
:103dfc004f00de000040780040f0b7000080fa0071
:103e0c00000006000000fa00507180004500de0042
:103e1c0061406000614060004400dd001100210041
:103e2c00914078000144a10000c0700001f0b7007f
:103e3c00107080004800de00614060004700dd002b
:103e4c0011002100914078000174a10000c07000a5
:103e5c0001f0b700907280004f00de000040780047
:103e6c00614060004600dd001100210091407800a7
:103e7c000164a10000c0700001f0b7001070800058
:103e8c004900de0061406000614060004300dd00dd
:103e9c0011002100914078000134a10000c0700095
:103eac0001f0b700b07080004400de00614060009b
:103ebc00614060004500dd00110021009140780058
:103ecc000154a10000c0700001f0b70050718000d7
:103edc004300de0061406000614060004200dd0094
:103eec0011002100914078000124a10000c0700055
:103efc0001f0b700507180004b00de0061406000a3
:103f0c006140600021002100914078000104a10073
:103f1c0000c0700002f0b700d07380004700de00d4
:103f2c00614060000080fb0000f0a7000000ea0088
:103f3c000000ea004f00de0080407800f00821000d
:103f4c0001487800110021009140780000c8b300ae
:103f5c0000c060000004e00007003a0001d0bf0080
:103f6c000044b2000004e000030032000010a9007d
:103f7c000030a9000050a9000080fa0000000600e3
:103f8c000000fa00889fbe008a9fbe008c9fbe0076
:103f9c00c08180008000eb0000f3070002002c00c1
:103fac00f347240002f4070090808800a180880069
:103fbc0090808000a180800002002500337c2400ca
:103fcc00daf40700b9f20700b0808800c1808800dd
:103fdc00b0808000c1808000488ede00cf8ede0075
:103fec008c407800b009210001487800b080800036
:103ffc00c1808000408dde00cf8dde008a407800cd
:10400c00c009210001487800b0808000c180800088
:10401c004809dd004804de0008047100c88cde008d
:10402c0088407800d009210001487800b0808000d9
:10403c00c180800080407800e009210001487800b0
:10404c00010021009140780090092100014878007e
:10405c001100210091407800a0092100014878004e
:10406c000000eb00aaf90700a20121009012200029
:10407c00010020000089be00a0012100e4004000e6
:10408c00910078000110a100640040000108780044
:10409c00a0012100e4004000910078000100a10083
:1040ac006400400001087800a0012100e4004000f9
:1040bc001101780031fc2f00810061008101b300f7
:1040cc006400400001087800a00121009109210042
:1040dc006600400001087800a1012100300020009a
:1040ec00bdf907004f06be004f05be004f04be00d1
:1040fc000080fa00000006000000fa0000d0bf00ab
:10410c00624060000004e00006003a0000d0bf00ee
:10411c00644060000004e00002003a004e30ef0002
:10412c003300370000d0bf000042b2000004e000b2
:10413c0011003a00c08180000000e0000e00320047
:10414c0000d0bf00624060000004e00003003200b9
:10415c0010002000708288002500370000d0bf00be
:10416c00644060000004e0001e00320020002000cb
:10417c00708288001e00370000d0bf000042b200e1
:10418c000004e00015003a0000d0bf006140600060
:10419c000004e00011003200c08180000000e0004b
:1041ac000e003a0000d0bf00624060000004e00046
:1041bc000300320030002000708288000c003700b1
:1041cc0000d0bf00644060000004e0000700320033
:1041dc004000200070828800050037004e30ef0050
:1041ec000300370000000000010037000000000051
:1041fc00808280000000e0000600320070828000a7
:10420c000000e00003003a003830ef003c30ef00d3
:10421c001efe070070828000808288000080fa00f9
:10422c00000006000000fa00f03f2000c08188006a
:10423c000080fa00000006000000fa00c181800036
:10424c00e081800080805000007d20008080400054
:10425c0030802000808f500004003600e081800008
:10426c003003b000c08188000b003700c181800092
:10427c00e081800080805000007d20008080400024
:10428c00b05d2000808f500003003e00e081800074
:10429c00401fb100c0818800c0818000e08188008f
:1042ac000080fa00000006000000fa004047a90058
:1042bc004087a9001142800080ff2f000080600021
:1042cc00104288006142800080ff2f000080600057
:1042dc00604288000140fe000080fa0000000600e9
:1042ec000000fa00003a8000640060000000e0006a
:1042fc00110032004047a900003a800070006000b5
:10430c000000e000010032004087a9000060fe00c0
:10431c001142800080ff2f00008060000000a00090
:10432c00104288006142800080ff2f0000806000f6
:10433c000000a000604288000080fa000000060027
:10434c000000fa0046d0bf000080fb00e20f5000d6
:10435c0025003200e20f500005003c000000e00098
:10436c000a003200e10f50000f00320064003700e9
:10437c00e40f500040003200e40f50002c003500d8
:10438c00e50f5000470032005d00370002d0bf003f
:10439c00614060000004e0005000320010c0b30027
:1043ac0046f0b70056003700558ea80000002800d4
:1043bc00006088003009210011c0b300014878006a
:1043cc0040092100104078000004e0004500320054
:1043dc0020c0b30046f0b700400921008040eb003c
:1043ec0001487800460037003039200030628800e0
:1043fc0002d0bf00614060000004e00002003a00ff
:10440c0040c0b30046f0b7004009210010407800ce
:10441c000004e0003500320030c0b30046f0b700b5
:10442c00400921008040eb0001487800340037003f
:10443c00605420003062880002d0bf0061406000f0
:10444c000004e00002003a0040c0b30046f0b700a0
:10445c0040092100104078000004e00025003200e3
:10446c0020c0b30046f0b700400921008040eb00ab
:10447c0001487800220037004009210010407800e4
:10448c000004e00007003200a046200030628800e3
:10449c00400921008040eb000148780050c0b30077
:1044ac0046f0b70040092100104078000004e000fd
:1044bc0012003200002cef00300921008040eb008c
:1044cc0001487800400921008040eb000148780049
:1044dc00558ea9004670ef0009003700000000005f
:1044ec000700370000000000050037000000000046
:1044fc00030037000000000001003700000000003e
:10450c000080fa00000006000000fa00003a80006b
:10451c000080fa00000006000200fa00faff070013
:10452c00000f78001e007800240007000004e00053
:10453c0002003200000028007d0007001e007800f9
:10454c002c0007000004e0000200320000002400f0
:10455c00770007001e007800360007000004e0001a
:10456c000200320000202000710007001e007800bd
:10457c00400007000004e0000200320000082000a8
:10458c006b0007001e0078004a0007000004e000e2
:10459c000200320000042000650007001e007800b5
:1045ac00540007000004e00002003200000120006b
:1045bc005f0007000080fa00000006000400fa000b
:1045cc008e80e800800878000040eb00004f7800f7
:1045dc000e80e800100078000000e00002003d00b2
:1045ec0010c0b300004f78001e4078000080fa0025
:1045fc00000006000400fa008e80e80080087800b5
:10460c000040eb00004f78000e80e800900078002e
:10461c0000002400008060000000e0000200320076
:10462c0010c0b300004f78001e4078000080fa00e4
:10463c00000006000400fa008e80e8008008780074
:10464c000040eb00004f78000e80e80090007800ee
:10465c0000202000008060000000e000020032001a
:10466c0010c0b300004f78001e4078000080fa00a4
:10467c00000006000400fa008e80e8008008780034
:10468c000040eb00004f78000e80e80090007800ae
:10469c0000082000008060000000e00002003200f2
:1046ac0010c0b300004f78001e4078000080fa0064
:1046bc00000006000400fa008e80e80080087800f4
:1046cc000040eb00004f78000e80e800900078006e
:1046dc0000042000008060000000e00002003200b6
:1046ec0010c0b300004f78001e4078000080fa0024
:1046fc00000006000400fa008e80e80080087800b4
:10470c000040eb00004f78000e80e80010007800ad
:10471c00700060000000e0000200320010c0b30026
:10472c00004f78001e4078000080fa000000060060
:10473c000200fa00000f78001e80ea00013a8000a7
:10474c0001006000003a88000080fa0000000600ba
:10475c000000fa004027ef000080fa00000006007d
:10476c000000fa000021ef00f0c3290010088800b7
:10477c004000280020088800f08280000000e00043
:10478c0002003a00004122005c0007000068a9000a
:10479c002068a800600a21008040eb0001487800e6
:1047ac006030ef000080fa00000006000200fa0002
:1047bc00000f78009e00780011088800600a210024
:1047cc008040eb00014878000080fa0000000600f1
:1047dc000000fa00100880000080fa0000000600bb
:1047ec000200fa00000f78009e0078000108880093
:1047fc00600a21008040eb00014878000080fa003c
:10480c00000006000000fa00000880000080fa009a
:10481c00000006000000fa003103210091407800ee
:10482c0020c3b30080cf500010003a0000092100d3
:10483c00104078000004a2000004e00006003200e2
:10484c00e008210011c0b30001487800d008210015
:10485c0011c0b30001487800000921008040eb0032
:10486c00014878003370ef000d00370033d0bf00e3
:10487c00f64f50000a003a00000921001040780061
:10488c000004e00006003200e008210011c0b30073
:10489c0001487800d008210011c0b300014878000d
:1048ac0030092100104078000004e0000b003200b9
:1048bc00008380000000e8000083880001838000f2
:1048cc0070bb2000808f500004003600400921008e
:1048dc0011c0b300014878006030ef0033d0bf0046
:1048ec000040e80033f0b70034d0bf000040e800cf
:1048fc0034f0b7000080fa00000006000200fa0055
:10490c00000f78002068a9009e007800f1828800d2
:10491c002068a8000080fa00000006000000fa00e1
:10492c00600a21008040eb00014878002068a80054
:10493c0005e1a8000080fa00000006000000fa0063
:10494c0005e1a9002068a9000080fa00000006001b
:10495c000200fa00600a2100104f78001e40780017
:10496c000004e00003003200600a21008040eb00ec
:10497c00014878001e4078000080fa000000060014
:10498c000000fa00700a2100104078000080fb0043
:10499c000080fa00000006000000fa00700a2100f6
:1049ac008040eb00014878000080fa00000006000f
:1049bc000000fa00500020001060880000c429009c
:1049cc0020608800062cef000a2cef001a2cef0058
:1049dc001e2cef00202cef00402cef00602cef0081
:1049ec000000eb00e3c1200011322400d2bc2a00ed
:1049fc008209780081097800106188002000240069
:104a0c00e3c1200011322400d2bc2a0082097800b4
:104a1c0081097800106288000000eb00e3c12000df
:104a2c0011322400d2bc2a00820978008109780056
:104a3c0010638800800f2000e3c120001132240095
:104a4c00d2bc2a0082097800810978002061880094
:104a5c00800f2000e3c1200011322400d2bc2a00b8
:104a6c00820978008109780020628800800f20007c
:104a7c00e3c1200011322400d2bc2a008209780044
:104a8c008109780020638800262cef00462cef006b
:104a9c00662cef00282cef00482cef00682cef0060
:104aac002a2cef004a2cef006a2cef002c2cef0084
:104abc004c2cef006c2cef00322cef00522cef0042
:104acc00722cef00342cef00542cef00742cef0000
:104adc00382cef00582cef00782cef003a2cef001c
:104aec005a2cef007a2cef003c2cef005c2cef00e2
:104afc007c2cef003e2cef005e2cef007e2cef00a8
:104b0c00002cef000080fa00000006000000fa0004
:104b1c000080fa00000006000000fa00314080001e
:104b2c0000202000008060000000e0000200320045
:104b3c00f6ff07000728a9000080fa000000060015
:104b4c000000fa000080fa00000006000000fa00e5
:104b5c003140800000202000008060000000e00058
:104b6c0002003200f6ff07000bc8a9000080fa0013
:104b7c00000006000000fa000080fa0000000600a9
:104b8c000000fa003140800000202000008060000e
:104b9c000000e00002003200f6ff07000be8a9005d
:104bac000080fa00000006000000fa000080fa0005
:104bbc00000006000000fa003140800000202000b8
:104bcc00008060000000e00002003200f6ff0700e9
:104bdc000c08a9000080fa00000006000000fa0092
:104bec00042eef00182eef002c2eef00402eef00bd
:104bfc00542eef00682eef007c2eef0030f12100d8
:104c0c0000708800f0ff2100a0708800f0ef2300f6
:104c1c004071880000142000e071880000002a0018
:104c2c00807288003000200020738800003820003b
:104c3c00c073880000102000607088000001200004
:104c4c000071880000022000a0718800482eef003f
:104c5c0000002800e0728800702eef00842eef0018
:104c6c000a2eef001e2eef00322eef00462eef0024
:104c7c005a2eef006e2eef00822eef00062eef0064
:104c8c001a2eef002e2eef00422eef00562eef00c4
:104c9c006a2eef007e2eef0030c02100707088006d
:104cac00300020001071880070212000b071880045
:104cbc0000002200f0728800003020003074880060
:104ccc00113a8000f00b200000816000600420008d
:104cdc0071052000237420008049780081497800f8
:104cec00824978000134800000fc2f0000806000b5
:104cfc00e000b3000034880060c4b300d4e6b70011
:104d0c00103a8000000178000260a00060042000ce
:104d1c0071052000237420008049780081497800b7
:104d2c0082497800090ea800092ea8001c8ea80044
:104d3c001caea8001ccea8001ceea8001d0ea800de
:104d4c001d2ea800314ea800316ea80031aea8006f
:104d5c00306ea80030aea80030cea80030eea8000f
:104d6c00450ea80059eea80080eea800806c220029
:104d7c000e0007000268a9002268a8000080fa0053
:104d8c00000006000000fa00a008210011c0b300ca
:104d9c0001487800b008210011c0b3000148780028
:104dac003470ef000080fa00000006000200fa00e8
:104dbc00000f78002268a9009e00780021838800eb
:104dcc002268a8000080fa00000006000200fa0029
:104ddc00000f78001e007800f4ff07000080fa0036
:104dec00000006000000fa003d0107002ef6070047
:104dfc003af607004000200045f607008cf9070042
:104e0c00c6fe0700d07380004700de0061406000e2
:104e1c000080fb0000f0a7000000ea000000ea00a0
:104e2c004f00de0080407800f00821000148780037
:104e3c000060fe00c0082100104078000004e00073
:104e4c0004003200bafa0700c00821008040eb00d1
:104e5c0001487800e0082100104078000004e000d0
:104e6c001d00320001d0bf00704060000004e00063
:104e7c0019003a0000d0bf000042b2000004e0006c
:104e8c0010003a00b1f907009bfc0700708280000b
:104e9c000000e0000d00320070828000e30f500033
:104eac000300320070828000e40f500002003a00d0
:104ebc00f03f2000c0818800dffc0700f3fa0700f8
:104ecc0002003700a1f90700f0fa0700e008210002
:104edc008040eb0001487800d00821001040780099
:104eec000004e0000500320098f9070024fc0700dc
:104efc00d00821008040eb0001487800a008210078
:104f0c00104078000004e000040032004afb070067
:104f1c00a00821008040eb0001487800b008210077
:104f2c00104078000004e0000700320034d0bf00cd
:104f3c00e14f500004003600b2fb0700b00821001e
:104f4c008040eb0001487800fdfc0700d0f607001c
:104f5c000004e00003003a00f3f607000004e00050
:104f6c000200320019cea8000100370019cea900aa
:104f7c00cdfc0700dafc0700adff37000000fa009b
:104f8c00000222000058880060042000105888009d
:104f9c00062bef0000002100205888000a2bef00a0
:104fac00082bef000c2bef007000200070588800cd
:104fbc000088a9002088a800102bef00122bef000e
:104fcc00162bef0000002100a05888001a2bef00d0
:104fdc00182bef001c2bef001e2bef0001c8a900b3
:104fec00000220000059880020022000105988007f
:104ffc00262bef0000002100205988002a2bef00ff
:10500c00282bef002c2bef0070002000705988002b
:10501c000308a9002308a800302bef00322bef0067
:10502c00362bef0000002100a05988003a2bef002e
:10503c00382bef003c2bef003e2bef000488a9002f
:10504c000080fa00000006000000fa000080fa0060
:10505c00000006000000fa000080fa0000000600c4
:10506c000000fa0001408000000024000080600075
:10507c000000e00002003200f6ff070001c8a900a2
:10508c000080fa00000006000000fa000080fa0020
:10509c00000006000000fa000080fa000000060084
:1050ac000000fa0020408000700060000000e0006a
:1050bc0002003200f7ff07000488a9000080fa0004
:1050cc00000006000000fa0000102300203a8800bf
:1050dc004827ef004e27ef0020012000303a8800cf
:1050ec00800f2f00003b8800f0f02000103b880060
:1050fc0000402000203b8800c0002000303b88008e
:10510c0000502000503b88006c27ef0000902100dd
:10511c00703b88003200200080072000a10920008d
:10512c0033742000804978008149780082497800e6
:10513c001200200060042000710520002374200060
:10514c00804978008149780082497800000000008d
:10515c00103a8000610060000000e000fcff3a00a3
:10516c0000000000113a8000000220000080600066
:10517c000000e000fbff32000080fa000000060097
:10518c000000fa0040602a00001988002223ef007a
:10519c00f0ef2100201988002823ef002e23ef00c8
:1051ac003023ef003223ef002623ef00408e220045
:1051bc00050007000080fa00000006000000fa005d
:1051cc000080fa00000006000200fa00000f7800d0
:1051dc001e007800308388000080fa000000060072
:1051ec000000fa00014080000000220000806000f6
:1051fc000000e00006003200308380000000e00078
:10520c0002003200308380000000010001a8a900d8
:08521c000080fa00000006000a
:020000040000fa
:105224006a100000200000008000000062100000ee
:105234000200000082000000ffff0000a610000032
:1052440002000000800000005e1000000400000066
:1052540080000000641000000200000080000000d4
:105264000012000000020000800000005210000044
:105274000c00000080000000661000000200000026
:10528400800000008a1000001c0000008000000064
:1052940000100000520000008000000068100000b0
:0c52a4000200000080000000000000007c
:020000040000fa
:1052b0000200fa00000f780021028000200f200079
:1052c000008060001e007000200288000080fa004c
:1052d000000006000000fa00c3e8a800000000007b
:1052e000000000000080fa00000006000000fa0044
:1052f0003dfe070076ff07000a000700a3ff070036
:10530000aefd070033f4070018fd07001eff07007d
:10531000f0ff070000022000e5ff07000080fa0010
:10532000000006000000fa0041428000f0ff280063
:105330000080600000c0a0004042880081428000e0
:10534000f0ff28000080600000c0a00080428800bc
:105350001142800080ff2f00008060000000a0004c
:10536000104288006142800080ff2f0000806000b2
:105370000000a0006042880001428000f0ff280089
:105380000080600000c0a000004288000080fa0099
:10539000000006000200fa00000f78009e0078006e
:1053a00011838800ffff37000000fa00a0062100eb
:1053b0008007780020082100000188000080fa00a2
:0453c00000000600e3
:020000040000fa
:020000040005f5
:04570000ffffff00a8
:020000040000fa
:020000040005f5
:04572000ffff000087
:020000040000fa
:020000040005f5
:0457300078ff0000fe
:020000040000fa
:020000040005f5
:045738003aff000034
:020000040000fa
:020000040005f5
:04574000eaff00007c
:020000040000fa
:020000040005f5
:04574800ffff00005f
:020000040000fa
:020000040005f5
:04575000ffff000057
:020000040000fa
:020000040005f5
:04575800000000004d
:020000040000fa
:020000040005f5
:045760000000000045
:020000040000fa
:020000040005f5
:04576800000000003d
:020000040000fa
:020000040005f5
:045770000000000035
:020000040000fa
:020000040005f5
:04577800feff000030
:020000040000fa
:020000040005f5
:04578000ffff000027
:020000040000fa
