:020000040000fa
:080000000002040000000000f2
:020000040000fa
:040008001a030000d7
:020000040000fa
:04000c005c03000091
:020000040000fa
:04001000bc0300002d
:020000040000fa
:040014003a030000ab
:020000040000fa
:040018007c03000065
:020000040000fa
:04001c009c03000041
:020000040000fa
:04002000dc030000fd
:020000040000fa
:04002400560500007d
:020000040000fa
:040028005605000079
:020000040000fa
:04002c005605000075
:020000040000fa
:040030005605000071
:020000040000fa
:04003400280400009c
:020000040000fa
:040038008c04000034
:020000040000fa
:04003c005605000065
:020000040000fa
:040040005605000061
:020000040000fa
:04004400560500005d
:020000040000fa
:040048005605000059
:020000040000fa
:04004c005605000055
:020000040000fa
:040050005605000051
:020000040000fa
:04005400560500004d
:020000040000fa
:040058005605000049
:020000040000fa
:04005c005605000045
:020000040000fa
:040060005605000041
:020000040000fa
:04006400560500003d
:020000040000fa
:040068005605000039
:020000040000fa
:04006c005605000035
:020000040000fa
:040070005605000031
:020000040000fa
:040074005e04000026
:020000040000fa
:040078005605000029
:020000040000fa
:04007c005605000025
:020000040000fa
:040080005605000021
:020000040000fa
:04008400560500001d
:020000040000fa
:04008800aa040000c6
:020000040000fa
:04008c005605000015
:020000040000fa
:040090005605000011
:020000040000fa
:04009400560500000d
:020000040000fa
:040098005605000009
:020000040000fa
:04009c005605000005
:020000040000fa
:0400a0005605000001
:020000040000fa
:0400a40056050000fd
:020000040000fa
:0400a80056050000f9
:020000040000fa
:0400ac0056050000f5
:020000040000fa
:0400b00056050000f1
:020000040000fa
:0400b400c80400007c
:020000040000fa
:0400b80056050000e9
:020000040000fa
:0400bc0056050000e5
:020000040000fa
:0400c00056050000e1
:020000040000fa
:0400c40056050000dd
:020000040000fa
:0400c80056050000d9
:020000040000fa
:0400cc0056050000d5
:020000040000fa
:0400d00056050000d1
:020000040000fa
:0400d40056050000cd
:020000040000fa
:0400d80056050000c9
:020000040000fa
:0400dc0056050000c5
:020000040000fa
:0400e00056050000c1
:020000040000fa
:0400e40056050000bd
:020000040000fa
:0400e80056050000b9
:020000040000fa
:0400ec0056050000b5
:020000040000fa
:0400f00056050000b1
:020000040000fa
:0400f40056050000ad
:020000040000fa
:0400f80056050000a9
:020000040000fa
:0400fc0056050000a5
:020000040000fa
:0401000056050000a0
:020000040000fa
:04010400560500009c
:020000040000fa
:040108005605000098
:020000040000fa
:04010c005605000094
:020000040000fa
:040110005605000090
:020000040000fa
:04011400560500008c
:020000040000fa
:040118005605000088
:020000040000fa
:04011c005605000084
:020000040000fa
:040120005605000080
:020000040000fa
:04012400560500007c
:020000040000fa
:040128005605000078
:020000040000fa
:04012c005605000074
:020000040000fa
:040130005605000070
:020000040000fa
:04013400560500006c
:020000040000fa
:040138005605000068
:020000040000fa
:04013c005605000064
:020000040000fa
:040140005605000060
:020000040000fa
:04014400560500005c
:020000040000fa
:040148005605000058
:020000040000fa
:04014c005605000054
:020000040000fa
:040150005605000050
:020000040000fa
:04015400560500004c
:020000040000fa
:040158005605000048
:020000040000fa
:04015c005605000044
:020000040000fa
:040160005605000040
:020000040000fa
:04016400560500003c
:020000040000fa
:040168005605000038
:020000040000fa
:04016c005605000034
:020000040000fa
:040170005605000030
:020000040000fa
:04017400560500002c
:020000040000fa
:040178005605000028
:020000040000fa
:04017c005605000024
:020000040000fa
:040180005605000020
:020000040000fa
:04018400560500001c
:020000040000fa
:040188005605000018
:020000040000fa
:04018c005605000014
:020000040000fa
:040190005605000010
:020000040000fa
:04019400560500000c
:020000040000fa
:040198005605000008
:020000040000fa
:04019c005605000004
:020000040000fa
:0401a0005605000000
:020000040000fa
:0401a40056050000fc
:020000040000fa
:0401a80056050000f8
:020000040000fa
:0401ac0056050000f4
:020000040000fa
:0401b00056050000f0
:020000040000fa
:0401b40056050000ec
:020000040000fa
:0401b80056050000e8
:020000040000fa
:0401bc0056050000e4
:020000040000fa
:0401c00056050000e0
:020000040000fa
:0401c40056050000dc
:020000040000fa
:0401c80056050000d8
:020000040000fa
:0401cc0056050000d4
:020000040000fa
:0401d00056050000d0
:020000040000fa
:0401d40056050000cc
:020000040000fa
:0401d80056050000c8
:020000040000fa
:0401dc0056050000c4
:020000040000fa
:0401e00056050000c0
:020000040000fa
:0401e40056050000bc
:020000040000fa
:0401e80056050000b8
:020000040000fa
:0401ec0056050000b4
:020000040000fa
:0401f00056050000b0
:020000040000fa
:0401f40056050000ac
:020000040000fa
:0401f80056050000a8
:020000040000fa
:0401fc0056050000a4
:020000040000fa
:04020000560500009f
:020000040000fa
:04020400560500009b
:020000040000fa
:040208005605000097
:020000040000fa
:04020c005605000093
:020000040000fa
:04021000560500008f
:020000040000fa
:04021400560500008b
:020000040000fa
:040218005605000087
:020000040000fa
:04021c005605000083
:020000040000fa
:04022000560500007f
:020000040000fa
:04022400560500007b
:020000040000fa
:040228005605000077
:020000040000fa
:04022c005605000073
:020000040000fa
:04023000560500006f
:020000040000fa
:04023400560500006b
:020000040000fa
:040238005605000067
:020000040000fa
:04023c005605000063
:020000040000fa
:04024000560500005f
:020000040000fa
:04024400560500005b
:020000040000fa
:040248005605000057
:020000040000fa
:04024c005605000053
:020000040000fa
:04025000560500004f
:020000040000fa
:04025400560500004b
:020000040000fa
:040258005605000047
:020000040000fa
:04025c005605000043
:020000040000fa
:04026000560500003f
:020000040000fa
:04026400560500003b
:020000040000fa
:040268005605000037
:020000040000fa
:04026c005605000033
:020000040000fa
:04027000560500002f
:020000040000fa
:04027400560500002b
:020000040000fa
:040278005605000027
:020000040000fa
:04027c005605000023
:020000040000fa
:04028000560500001f
:020000040000fa
:04028400560500001b
:020000040000fa
:040288005605000017
:020000040000fa
:04028c005605000013
:020000040000fa
:04029000560500000f
:020000040000fa
:04029400560500000b
:020000040000fa
:040298005605000007
:020000040000fa
:04029c005605000003
:020000040000fa
:0402a00056050000ff
:020000040000fa
:0402a40056050000fb
:020000040000fa
:0402a80056050000f7
:020000040000fa
:0402ac0056050000f3
:020000040000fa
:0402b00056050000ef
:020000040000fa
:0402b40056050000eb
:020000040000fa
:0402b80056050000e7
:020000040000fa
:0402bc0056050000e3
:020000040000fa
:0402c00056050000df
:020000040000fa
:0402c40056050000db
:020000040000fa
:0402c80056050000d7
:020000040000fa
:0402cc0056050000d3
:020000040000fa
:0402d00056050000cf
:020000040000fa
:0402d40056050000cb
:020000040000fa
:0402d80056050000c7
:020000040000fa
:0402dc0056050000c3
:020000040000fa
:0402e00056050000bf
:020000040000fa
:0402e40056050000bb
:020000040000fa
:0402e80056050000b7
:020000040000fa
:0402ec0056050000b3
:020000040000fa
:0402f00056050000af
:020000040000fa
:0402f40056050000ab
:020000040000fa
:0402f80056050000a7
:020000040000fa
:0402fc0056050000a3
:020000040000fa
:04030000560500009e
:020000040000fa
:04030400560500009a
:020000040000fa
:040308005605000096
:020000040000fa
:04030c005605000092
:020000040000fa
:04031000560500008e
:020000040000fa
:100400000f4021000eff24000e01880000000000b4
:10041000000020000000e000020032000001200087
:100420002002880014000700a20107000000e0007d
:1004300003003a0080012200010020000200370082
:100440000000200001002000810f70000100320038
:100450000f000700000020000000e0000200320052
:100460000000020000000000001e0200000000006a
:100470000040da000000fe00200020000000e00044
:1004800002003200100020009001880000000600e9
:10049000a1028800800478000000eb001f003700f4
:1004a000e284440054a0b4009905ba00e2844400f8
:1004b00054a0b4009906ba00e284440054a0b400e9
:1004c0000006eb00476fde00fd07b200ae018800ba
:1004d000636ce10003003a000ad801000000eb0061
:1004e0000e003700606ce10008003a00004deb00a0
:1004f0000a05e800020039003420ec000af0a000f0
:100500008b05e900f9ff3e00040037006168e10057
:10051000010032000086eb000b00070019c7ba008b
:100520000e04e0001905ba0003003a000a00e000da
:10053000dbff3a0000000600fe07b200ae028800b2
:100540008a047800f5ff37000cd0a300e20f4d00bd
:100550001c00390089027800354dba000a05e80010
:10056000020039003420ec000af0a0008b05e900fd
:100570000f003200254dba000a05e80002003900dc
:100580003420ec000af0a0008b05e90008003200de
:100590000c00e0000600320015cdba000a05e800a4
:1005a000020039003420ec000af0a0008b05e900bd
:1005b0008984e80054a0b4000b00e000e2ff3a0098
:1005c000000006009902ba00055d78008b05e9007d
:1005d000f7ff3200c82ade00055d78008b05e900d0
:1005e000f3ff32000c00e000f1ff320019ddba0029
:1005f000eeff37004e1c040000000000d01d040078
:1006000000000000741004000000000088100400c6
:10061000000000009c10040000000000b010040066
:1006200000000000c210040000000000ea1f0400e7
:10063000000000003600f800809fbe00829fbe00d0
:10064000849fbe00869fbe000000fa00c028a9005b
:100650000000eb00ce0e07000080fa004f03be0042
:100660004f02be004f01be004f00be003600f90031
:10067000004006003600f800809fbe00829fbe004a
:10068000849fbe00869fbe000000fa00c50e0700d2
:10069000c048a90010002000bd0e07000080fa002d
:1006a0004f03be004f02be004f01be004f00be0010
:1006b0003600f900004006003600f800809fbe00ba
:1006c000829fbe00849fbe00869fbe000000fa008d
:1006d000c068a90020002000ad0e07000080fa00cd
:1006e0004f03be004f02be004f01be004f00be00d0
:1006f0003600f900004006003600f800809fbe007a
:10070000829fbe00849fbe00869fbe000000fa004c
:10071000c088a900300020009d0e07000080fa006c
:100720004f03be004f02be004f01be004f00be008f
:100730003600f900004006003600f800809fbe0039
:10074000829fbe00849fbe00869fbe000000fa000c
:10075000c0a8a900400020008d0e07000080fa000c
:100760004f03be004f02be004f01be004f00be004f
:100770003600f900004006003600f800809fbe00f9
:10078000829fbe00849fbe00869fbe000000fa00cc
:10079000c608a900700020007d0e07000080fa0046
:1007a0004f03be004f02be004f01be004f00be000f
:1007b0003600f900004006003600f800809fbe00b9
:1007c000829fbe00849fbe00869fbe000000fa008c
:1007d0002146800000102000008060000000e00042
:1007e00003003200c508a900c0002000680e070001
:1007f0002146800000002800008060000000e0002a
:1008000003003200c5e8a90080002000600e070048
:100810002146800000022000008060000000e0000f
:1008200003003200c4a8a90090002000580e070061
:1008300020468000700060000000e00003003200ed
:10084000c488a900a0002000510e0700ffff370058
:100850003600f800809fbe00829fbe00849fbe00cd
:10086000869fbe000000fa00d08280000000e000f9
:1008700002003200d082800000000100f009210057
:10088000104078008040e800f0092100014878001d
:10089000e009210011c0b300014878000068a900f8
:1008a0000080fa004f03be004f02be004f01be00a1
:1008b0004f00be003600f900004006003600f80088
:1008c000809fbe00829fbe00849fbe00869fbe00a8
:1008d0000000fa0010408000680060000000e000a6
:1008e00006003200008380000000e00002003200b9
:1008f00000838000000001000268a9000080fa0067
:100900004f03be004f02be004f01be004f00be00ad
:100910003600f900004006003600f800809fbe0057
:10092000829fbe00849fbe00869fbe000000fa002a
:100930004b0d07000088a9000080fa004f03be009d
:100940004f02be004f01be004f00be003600f9004e
:10095000004006003600f800809fbe00829fbe0067
:10096000849fbe00869fbe000000fa004c0d070069
:100970000308a9000080fa004f03be004f02be002a
:100980004f01be004f00be003600f90000400600d7
:100990003600f800809fbe00829fbe00849fbe008c
:1009a000869fbe000000fa00512080000002200057
:1009b000008060000000e0001f0032005120800035
:1009c00000002200008060000000e000050032000e
:1009d000708280000000e00002003200708280001f
:1009e0000000010051208000000021000080600014
:1009f0000000e00005003200808280000000e0007e
:100a0000020032008082800000000100512080003e
:100a100000802000008060000000e000050032003f
:100a2000908280000000e00002003200908280008e
:100a3000000001000aa4a9005020800062006000ac
:100a40000000e00006003200b08280000000e000fc
:100a500002003200b0828000000001000a24a900d8
:100a60005120800000042000008060000000e000b1
:100a700006003200a08280000000e0000200320088
:100a8000a0828000000001000ac4a9000468a90037
:100a90000080fa004f03be004f02be004f01be00af
:100aa0004f00be003600f900004006000040da00aa
:100ab0000000fe000000050003f0a200889fbe00b9
:100ac0008a9fbe008c1f7800140107001b013300b1
:100ad0006450e1004f0032006420e1005200320017
:100ae00003826c0007003b000905d0000306d0001c
:100af000820f54000c065d00020039000200320033
:100b000089017800030678008582550004003d00c5
:100b10000003fd008103fd008502ea008b85420091
:100b2000840f720002003b0060001000e08018009b
:100b30006011b8000005eb007a28e1000a003900d6
:100b400006007800c75ddd00f707b20087807500fa
:100b50002d003700828171000a0178006105600074
:100b60008180d1000080d3008502e900f9ff3b00bd
:100b7000060440008784480002003b006004140023
:100b8000e0841c000988a300070032008a817100fc
:100b900082817100610164008904d1000884d3005e
:100ba0008b05e800170037000978a30013003a000e
:100bb0000b00e000130034008b05e900080444003a
:100bc00089844c000a4474000978a3000d003a009f
:100bd0000b00e000070034008b05e9000804440026
:100be00089844c0001003a000b0020000978a30022
:100bf000f7ff32000001eb00020037008281710034
:100c00000a0178008a0007000cf0a70001f0a0009c
:100c1000d30037006420e10002003a00838f6c00ab
:100c2000d30033000801be000200be00cc00370034
:100c3000889fbe008a9fbe008c1f7800b700070007
:100c4000be00330003866c006450e1002e003200c9
:100c50006420e100330032006150e1002f003200d7
:100c60006120e1003100320085855500eb07b000be
:100c70000900200008042000050037000804440093
:100c800089844c000a0031000603430087834b002f
:100c90000001530081815b00f8ff33000203be00b6
:100ca0000800a0000804440089844c00f6ff3900c5
:100cb000c639dd00830173000100320013002000fb
:100cc0008904d1000884d3000998a30005003200ec
:100cd0000800a7000300a0008904d1000884d30005
:100ce0008b05e8008904d1000884d3000001eb00e3
:100cf0000281d2004e00070001f0a1000cf0a70015
:100d000001f0a000960037006420e1009800320056
:100d10000801be000200be00f7ff37006120e100bd
:100d2000930032006000b800f3ff3700000020009d
:100d300001f82700f0ff37000001be006200070045
:100d40000470a70003f0a1006509b100160032008d
:100d50000d0035006828e10006003500f0ff2f0087
:100d6000f1ff27000300e00013003b000100280012
:100d70000000050000004000818048008502e90075
:100d8000fcff3a0008003700f88f420002003c00e8
:100d90008000eb00000005008100d1000080d3003e
:100da0008502e800fcff3a000300e00002003b007f
:100db00060001000e0801800000006000001be0086
:100dc000410007000470a70003f0a10003f8a3008e
:100dd00013003a006509b100100032000900350027
:100de0006928e1000200350001002800000005002c
:100df00000004000818048008502e900fcff3a00c5
:100e000000000600f88f4200050035008100d10087
:100e10000080d3008502e800fcff3a0000000600d5
:100e20008000eb00000005006011b800870037006b
:100e300081002000618055000b003d000b00200068
:100e400061fe2f000100e1001d003400828171006d
:100e5000610164008904d1000884d3000000e80027
:100e6000faff3a0071002000610064000300700086
:100e7000020060000900320061044400e0844c007c
:100e80000988a500050032008b05e8006808e1002c
:100e900002003a008904d1000884d300f20f200038
:100ea0000258e10005003d00c75ddd00f907b20012
:100eb0008980750008007800000006000bf8270004
:100ec0008b00780000000500c70ade00f107b200c1
:100ed000f50fb20008003200e1cf420002003200fc
:100ee0000170a00024000500810f70000100320095
:100ef0000408050044000500810f700002003a005c
:100f0000140005008502e9000000400081c048008f
:100f1000fcff3b000170a000240005000004be009f
:100f2000e9ff07000003be000405be000200be008a
:100f3000e5ff0700844f7500000006000200be00b8
:100f40006450e100050036006420e1000200360034
:100f50000968a30001003a000800be000160a0007b
:100f60004f0678004f05be004f04be00000006008b
:100f7000f0ff2f00f1ff2700f9ff3700889fbe0028
:100f80008a9fbe008c1f7800e4ff0700ebff330050
:100f900003866c006450e100240032006420e1000c
:100fa000270032006150e100220032006120e100a0
:100fb000210032008b854200eb07b1000134b800fc
:100fc000003ab8000804420089844a00013ab80097
:100fd0000030b8008880400009014a000400330056
:100fe0000000400081804800020149008b05e900b3
:100ff000c909dd00830170000100320013002000e8
:10100000c814de004814dd004709de001200b200fb
:10101000c808de000884700085ff070001f0a10009
:101020000cf0a70001f0a000cdff37006120e10027
:10103000cfff32000801be000200be00f7ff3700fc
:101040006150e100fcff3a00c9ff3700889fbe00f5
:101050008a9fbe0000827000040271000482710049
:10106000260032000004be000200be006011b8007d
:101070006b092000950220000182cf000a00390090
:101080000541b1000082cf00070039000541b100e1
:101090000982cf00040039000541b1000882cf0069
:1010a000010039000541b100054252001200320032
:1010b0000a003b0082817100610164008100d1005f
:1010c0000080d3008984d3000884d3008b05e80016
:1010d0000442e800f7ff3a00070037000804440024
:1010e00089844c0000004800818048008b05e9009d
:1010f0000442e900f9ff3a004dff07004f05be002a
:081100004f04be0000000600d0
:020000040000fa
:101108000200fa00000f78001e007800e10f50007e
:1011180009003200e10f500005003900e20f5000cd
:1011280007003200e30f50000700320008003700c4
:1011380001eba8000600370011eba80004003700f7
:1011480021eba8000200370031eba80000000000e6
:101158000080fa00000006000400fa00000f780082
:10116800110798001e007800e10f50000b003200b4
:10117800e10f500005003900e20f50000b0032006b
:10118800e30f50000d003200100037009e00900061
:1011980021588800062bef000c0037009e009000b5
:1011a800a1588800162bef00080037009e00900019
:1011b80021598800262bef00040037009e0090007c
:1011c800a1598800362bef00000000000080fa00cb
:1011d800000006000400fa00000f780011079800cc
:1011e8001e007800e10f50000a003200e10f5000a5
:1011f80005003900e20f500009003200e30f5000eb
:101208000a0032000c0037009e00900061588800e8
:10121800090037009e009000e1588800060037005a
:101228009e00900061598800030037009e009000de
:10123800e1598800000000000080fa000000060064
:101248000c00fa00004f9800510798000000eb00ce
:10125800100798000000eb00000f78006000b8004d
:1012680020079800310798000e4890000080fb0086
:10127800c400dd000020210000804000100078003c
:1012880061006000100798001e0090000000e00058
:1012980018003a000e4890000080fb00c400dd00f2
:1012a800002021000080400090007800c0ff21004d
:1012b800008060004200de008000eb005e019000cc
:1012c8000089be005e009000a00090000100a1000f
:1012d800210098000e4890000080fb00c400dd004b
:1012e800002021000080400010007800620f60009c
:1012f8006c0037000e4890000080fb00c400dd0041
:101308000020210000804000100078006101b80032
:10131800c0ff2100010020000202780003017800cc
:10132800800178000100780003026200000061007b
:101338008000eb00c000dd00000020000001be00be
:101348006120b800000171008181710022079800b6
:10135800330798002e009000be009000c000dd000a
:10136800000020005e0190000089be005e00900031
:1013780010027800900290000e4890000080fb0058
:101388004400dd008080e80000202100008040004b
:10139800100078006101b800f0ff20000100200073
:1013a80002037800030178008001780001007800ca
:1013b80003036300000061008000eb00c000dd0053
:1013c800000020000001be006130b800000171007b
:1013d800818171004618dd00ca10de0081007000ae
:1013e8004610dd0004004000858048005e01900042
:1013f8000089be005e009000100278009002900004
:101408000e4890000080fb004400dd00e40040002e
:101418000020210000804000100078004a00de0013
:101428006101b800f0ff2f000100200002037800de
:10143800030178008001780001007800030363004d
:10144800000061008000eb00c000dd00000020000b
:101458000001be006130b800000171008181710097
:1014680004004100858049005e0190000089be00ab
:101478005e009000a00090000100a00021009800ec
:101488000e4890000080fb004400dd00e4004000ae
:1014980000202100008040009000780000202000fb
:1014a800008f60001e0078000000e0000500320098
:1014b8005e009000a00090000110a000210098009c
:1014c8007b0037005e009000a00090000110a10092
:1014d800210098005e009000300090008e48900037
:1014e8008180fb00c408dd006681400001202100e6
:1014f800810041009100780081407800014878001f
:101508005e009000300090000000e8008e489000d7
:101518008180fb00c408dd006681400001202100b5
:101528008100410091007800c808de008140780001
:10153800014878005e009000300090000080e800cc
:101548008e4890008180fb00c408dd00688140005f
:10155800012021008100410091007800814078003d
:10156800014878005e009000300090006300400061
:101578008e4890008180fb00c408dd00688140002f
:10158800012021008100410091007800c808de0098
:1015980081407800014878005e009000300090009b
:1015a800640040008e4890008180fb00c408dd0084
:1015b8006a814000012021008100410091007800eb
:1015c80081407800014878005e009000300090006b
:1015d800650040008e4890008180fb00c408dd0053
:1015e8006a814000012021008100410091007800bb
:1015f800c808de0081407800014878005e0090004d
:1016080030009000660040008e4890008180fb000a
:10161800c408dd006c8140000120210081004100e8
:101628009100780081407800014878005e009000c1
:1016380030009000670040008e4890008180fb00d9
:10164800c408dd006c8140000120210081004100b8
:1016580091007800c808de008140780001487800d1
:101668000e4890000080fb004400dd00e4004000cc
:101678000020210000804000100078000040780021
:101688006f4060006f4060006f406000de009000b7
:101698000080fb006f0060004200dd00a1019000a7
:1016a80032fc2f000281610002007000a000980047
:1016b8000080fa00000006000400fa00000f78001d
:1016c800110798001e009000200090006100600043
:1016d8000000e00015003a001e0090009000900005
:1016e8001000780080007800f07f20000080600003
:1016f800c200dd001e007800010878001e80e800a6
:101708008000eb00010878009e00780064804000ab
:101718009e009000a1009000c208de00efc06000ab
:101728008180fb0001087800250037001e0090002a
:1017380090009000100078004008de0080007800db
:10174800c0ff210000806000800078003100b300f5
:101758001e007800010878001e81e8001e00900035
:101768009000900010007800ca09dd004600de00f5
:1017780000807100c608de0080007800f0ff2000bd
:1017880000806000000978009e00780064814000b5
:101798001e009000200090004200de006f406000b4
:1017a8008081fb001e0090009000900010007800df
:1017b800000078004a00dd00008041000009780040
:1017c8001e009000300090000000e0003b00320056
:1017d8009e017800668041009e009000b100900054
:1017e8008100e800914078008180fb004809dd0015
:1017f8009e009000b1009000914078008180fb002d
:1018080081004100010878009e007800688040004f
:101818009e009000b1009000e38040009140780065
:101828008180fb004809dd009e009000b100900017
:101838008180e800914078008180fb0081004100b0
:10184800010878009e0178006a8041009e0090009f
:10185800b1009000e5804000914078008180fb0055
:101868004809dd009e009000b1009000e48040002f
:10187800914078008180fb008100410001087800d8
:101888009e0078006c8040009e009000b10090009f
:10189800e7804000914078008180fb004809dd0026
:1018a8009e009000b1009000e680400091407800d2
:1018b8008180fb0081004100010878000080fa0067
:1018c800000006000000fa002468a9000c24ef00bc
:1018d80001208000f08f2f000080600000a0a00091
:1018e800002088000000000001208000000e200079
:1018f8008080600000082000808f5000faff3a00c6
:101908003000200080208800801a24009020880061
:1019180030002c003020880070002000a0208800b3
:101928000024ef000004a800c1208000c0ff2f00a1
:1019380000806000c0208800c120800030ff2f0098
:1019480000806000c0208800c1208000f0fc2f00cb
:1019580000806000c02088008121800000fe2f00e8
:101968000100700080218800a02180007f006000b5
:10197800a0218800c02180007f006000c02188006d
:1019880081218000c0ff2f00008060008021880036
:10199800a1218000c0ff2f0000806000a0218800e6
:1019a800c1218000c0ff2f0000806000c021880096
:1019b8003224ef003624ef003a24ef003064a90007
:1019c8003464a9003864a90000228000ff00600088
:1019d800000a2300010070000022880020228000f5
:1019e800ff006000006622000100700020228800cd
:1019f800402280007f0060000090a0004022880004
:101a080001228000c0ff2f000080600000228800b3
:101a180021228000c0ff2f00008060002022880063
:101a280041228000c0ff2f00008060004022880013
:101a38004224ef004624ef004a24ef004064a90046
:101a48004464a9004864a9000121800000ff2f0018
:101a5800008060003000b300002188000121800070
:101a6800f0f02f00008060000060a00000218800d6
:101a780001218000f00f2f008080600000502000be
:101a880001007000002188000004a90030e4a800cb
:101a980031e4a80032e4a80033e4a90034e4a90042
:101aa80035e4a90036e4a90037e4a90081218000c3
:101ab800c0ff2f0000806000802188008121800005
:101ac800f0cf2f00008060008021880091218000e5
:101ad800c0ff2f00008060009021880091218000c5
:101ae800f0cf2f000080600090218800a1218000a5
:101af800c0ff2f0000806000a0218800a121800085
:101b0800f0cf2f0000806000a0218800b121800064
:101b1800c0ff2f0000806000b0218800b121800044
:101b2800f0cf2f0000806000b02188002024ef0053
:101b38002224ef002824ef002a24ef000a24a90019
:101b480001208000f08f2f000080600000208800b6
:101b58000000000001208000000e200000806000ce
:101b68000000e000fbff3a00400721006001070089
:101b78008008210068010700c009210070010700e2
:101b8800000b210077010700200c21007f010700ce
:101b98002468a8000c24a8000ca4a8000080fa005f
:101ba800000006000000fa002044200080007800b1
:101bb8000000eb0087fd070000202100800078006e
:101bc8000000eb0064fd07000000eb004cfd07007f
:101bd8000080fa00000006000000fa00004420001f
:101be80080007800200020007afd070000202100f6
:101bf800800078002000200057fd0700200020000a
:101c08003ffd07000080fa00000006000400fa000b
:101c1800100798000000eb00000f78002100070073
:101c2800e40f5000060032001e009000e10f500043
:101c3800030032001e009000e40f500014003a0028
:101c48001e00900000407800674060000080fb00a4
:101c5800670060004800dd0002208000f18f2f003f
:101c68008100610001007000002088000000000071
:101c7800002080004500de00674060008080fb0097
:101c88001e009000808f5000f9ff3a0002003700d4
:101c980010002000000f78001e0078000080fa0075
:101ca800000006000000fa00002080004500de0069
:101cb800674060000080fb000080fa00000006001a
:101cc8000c00fa0040079800510798000000eb004c
:101cd800000f780000432000100798000040eb0038
:101ce800604798005e009000200090004200de00ef
:101cf8006f4060000080fb00e80f500001003400d6
:101d08001e00a0000000eb00200798002800370004
:101d18001e0090009040780000c8b30000c060002a
:101d28000004e0001c0032001e0090001040780003
:101d3800684060000004e00017003a00012021001c
:101d48002e0090004400dd0000804000de0090007e
:101d580059fe07004e00900000407800e340600004
:101d68001e009000e3c0600090417800c2cfb3002d
:101d780002c1610081407100014878001e00900096
:101d8800904078000134a0000148780010c0b300ea
:101d980060479800090037001e0090000000e80026
:101da800100798002e0090000000e8002007980017
:101db8002e009000e20f5000d5ff36006e409000d4
:101dc8000004a2000004e000020032009e00780037
:101dd800638f70001e0078000080fa000000060083
:101de8000800fa00300798000040eb0020479800f0
:101df8003e009000300090000000e00002003a0031
:101e08002e4090002e003700012180002107980005
:101e18002e0090000000e000280032000000eb00d7
:101e2800000f780020003700c0828000ae009000cc
:101e38000008de0061006000004078000004e00057
:101e48000e003200c082800000407800be00900082
:101e5800fbfc0700c0828000110020000008dd00a4
:101e68000080ea0080007800002180000080600087
:101e78000021880010c0b30020479800c08280006d
:101e88000000e800c0828800c0828000ef0f500088
:101e9800010036005830ef002e4090000004e000aa
:101ea80005003a001e0fe8001e007800ef0f5000f2
:101eb800ddff360001003700000000002e409000d2
:101ec8000080fa00000006000000fa0050208000a0
:101ed8004d00de00614060000080fb0000f0a700bc
:101ee8000000ea000000ea004f00de000040780031
:101ef8000080fa00000006000000fa005020800070
:101f08004b00de00614060000080fb0000f0a7008d
:101f18000000ea000000ea004f00de000040780000
:101f28000080fa00000006000000fa00502080003f
:101f38004900de00614060000080fb0000f0a7005f
:101f48000000ea000000ea004f00de0000407800d0
:101f58000080fa00000006000200fa000040eb00d2
:101f6800004f78000ec4bf000004e00005003200f6
:101f78000ec4bf000004e0000200350010c0b3002a
:101f8800004f78001e4078000080fa00000006002c
:101f98000000fa00502080004c00de006140600024
:101fa8000080fb0000f0a7000000ea000000ea0043
:101fb8004f00de00004078000080fa0000000600b4
:101fc8000000fa00502080004a00de0061406000f6
:101fd8000080fb0000f0a7000000ea000000ea0013
:101fe8004f00de00004078000080fa000000060084
:101ff8000200fa000040eb00004f78000fc4bf0059
:102008000004e000050032000fc4bf000004e00037
:102018000200350010c0b300004f78001e40780061
:102028000080fa00000006000600fa000000eb003d
:10203800000f780001218000210798002e009000f1
:102048000000e000110032000000eb0010079800cb
:102058000b0037001e009000ae0090000008de0064
:1020680061006000004078000004e00001003200d8
:102078001e0fe8001e0090000000e80010079800fe
:102088001e009000ef0f5000f2ff36001e0078008f
:10209800004078000080fa00000006000000fa0006
:1020a8000ac4a9000cc4a80001208000f08f2f00ea
:1020b800008060000080a000002088000000000070
:1020c80001208000000e20008080600000022000b7
:1020d800808f5000faff3a000080fa0000000600e6
:1020e8000000fa00300107000080fa000000060036
:1020f8000200fa00000f78001e0078007082880045
:102108000080fa00000006000000fa00290107001c
:102118000080fa00000006000200fa00000f7800b4
:102128001e007800808288000080fa000000060007
:102138000000fa00220107000080fa0000000600f3
:102148000200fa00000f78001e00780090828800d4
:102158000080fa00000006000000fa000080fa0083
:10216800000006000200fa00000f78001e00780048
:10217800a08288000080fa00000006000000fa0033
:10218800120107000080fa00000006000200fa00b1
:10219800000f78001e007800b08288000080fa00e6
:1021a800000006001400fa00000f9800110f9800b4
:1021b80003000900001feb008e00b1007e079800a5
:1021c8001e089000900090001000780040079800ca
:1021d800510798001e089000404090006140600040
:1021e8000080fb0061006000ee0090000100a1008b
:1021f80001007000600798001e0890005040900091
:10220800614060000080fb00610060000000400049
:10221800ee0090000110a100010070006007980016
:102228001e089000604090006f4060000080fb0036
:102238006f0060004200dd006e01900031fc2f004d
:102248008100610001007000600798007e00900026
:102258009e089000f1409000014878007e009000b0
:102268000000e8009e08900081489000014878002e
:102278007e0090000080e8009e0890009148900041
:10228800014878007e009000630040009e0890009e
:10229800a1489000014878007e009000640040004a
:1022a8009e089000b1489000014878007e00900098
:1022b800650040009e089000c148900001487800e1
:1022c8007e009000660040009e089000d148900073
:1022d800014878007e009000670040009e0890004a
:1022e800e1489000014878006800470080007800c5
:1022f8000e08900072fe070000f0a7000000ea0038
:102308000000ea004f00de00004078000080fa007c
:10231800000006001400fa00100f98000040eb00bf
:10232800004f7800e1004700070009008058eb00e3
:102338000e00e800000f98006a004700a8fe07009a
:102348000004e000430032005e009000ee009000c0
:102358001e0990000089be007e0090006140600068
:10236800804078001e089000414098007e00900050
:10237800620060000000e000040032001e089000c7
:1023880021c0b30051409800030037001e08900098
:1023980011c0b300514098000e089000904078009a
:1023a8001e089000714098000e0890000000e80098
:1023b800904078001e089000014898000e08900090
:1023c8000080e800904078001e08900011489800ae
:1023d8000e08900063004000904078001e089000ae
:1023e800214898000e089000640040009040780052
:1023f8001e089000314898000e08900065004000c3
:10240800904078001e089000414898000e089000ff
:1024180066004000904078001e08900051489800df
:102428000e08900067004000904078001e08900059
:10243800614898007e0090004200de006f40600016
:10244800804078001e0890006140980010c0b300da
:10245800004f78001e4078000080fa000000060057
:102468000000fa00502080004d00de00614060004e
:102478000080fb0000f0a7000000ea000000ea006e
:102488004f00de00004078000080fa0000000600df
:102498000000fa00502080004b00de006140600020
:1024a8000080fb0000f0a7000000ea000000ea003e
:1024b8004f00de00004078000080fa0000000600af
:1024c8000000fa00502080004c00de0061406000ef
:1024d8000080fb0000f0a7000000ea000000ea000e
:1024e8004f00de00004078000080fa00000006007f
:1024f8000600fa000000eb00000f780001218000c0
:10250800210798002e0090000000e0001100320022
:102518000000eb00100798000b0037001e00900029
:10252800ae0090000008de00610060000040780006
:102538000004e000010032001e0fe8001e009000b9
:102548000000e800100798001e009000ef0f5000f0
:10255800f2ff36001e007800004078000080fa0084
:10256800000006000000fa000ac4a9000cc4a80074
:1025780001208000f08f2f00008060000080a00004
:10258800002088000000000001208000000e2000cc
:102598008080600000022000808f5000faff3a001f
:1025a8000080fa00000006000000fa000080fa002f
:1025b800000006000000fa000080fa000000060093
:1025c8000000fa000080fa00000006000000fa008f
:1025d8006008210011c0b300014878000080fa00ab
:1025e800000006000000fa0021e3a8000080fa00bd
:1025f800000006000000fa0021e3a9000080fa00ac
:10260800000006000000fa002023a8000080fa005d
:10261800000006000000fa002023a9000080fa004c
:10262800000006000200fa00000f78001e00780083
:10263800e10f50000b003200e10f50000300390099
:10264800e20f50000e0032001400370041198000dc
:1026580000fc2f0000806000e001b30040198800f2
:102668000e0037004119800000fc2f0080806000b8
:10267800d0032000010070004019880007003700cf
:102688004119800000fc2f0080806000e0032000da
:102698000100700040198800000000000080fa0066
:1026a800000006000400fa00100798001e009000c1
:1026b800e20f500003003e0001188000010f78006f
:1026c80001003700000000001e0078000080fa00ba
:1026d800000006000400fa001007980000198000a6
:1026e80000407800614060000080fb0000f0a70017
:1026f8000000ea000000ea004f00de00004f78000a
:102708001e4078000080fa00000006000000fa0071
:102718000070ef000170ef00ea0107000270ef009f
:102728000370ef000470ef000570ef0000c429008b
:1027380030808800100921008040eb0001487800b3
:10274800500921008040eb0001487800d0092100a1
:102758008040eb00014878003670ef003770ef00da
:102768003c30ef003e70ef003070ef003170ef004a
:102778003270ef003370ef006000b80040808800ce
:10278800518088000c30ef000e30ef004230ef002f
:102798003430ef00400821008040eb000148780009
:1027a800500821008040eb000148780060082100b3
:1027b8008040eb0001487800700821008040eb0061
:1027c80001487800800821008040eb00014878002b
:1027d800900821008040eb0001487800b0082100f3
:1027e8008040eb0001487800c00821008040eb00e1
:1027f80001487800a00821008040eb0001487800db
:102808000080fa00000006000000fa00889fbe0061
:1028180074ff07000000eb0082ff070079ff070044
:102828003c30ef0003003700e08180000000e80042
:10283800e0818800e1818000703e2000808f500098
:10284800f9ff360073ff0700000000000000eb00ee
:10285800a0ff07000004a2000004e000fbff3a000c
:102868000000eb008fff0700b0818800b181800075
:1028780000f92900808f500015003600b0818000d3
:102888008000eb0066f90700d2cc2c00c3ec2300d3
:10289800b8f907000004be00108280008000eb0039
:1028a8005ff90700a299290093f12300b1f9070005
:1028b8000001be000800be007ef807003df90700d1
:1028c800000078001082880010828000b0818800a3
:1028d800b1818000c081800080805000a00f20005e
:1028e800808f500003003e00c0818000b0818800c6
:1028f80002003700b0818000c0818800b18180006b
:1029080000f92900808f500002003e003630ef00a9
:10291800b2003700b18180000007260080804000a7
:10292800300f2000808f500002003e003630ef004c
:10293800aa003700b181800000072600808040008f
:10294800601e2000808f500003003e0060062000bb
:10295800b0818800a1003700b181800000072600ff
:1029680080804000902d2000808f500003003e00a2
:1029780090092000b081880098003700b18180005c
:102988000007260080804000c03c2000808f500057
:1029980003003e00c00c2000b08188008f00370083
:1029a800b18180000007260080804000f04b2000a5
:1029b800808f500003003e00f00f2000b081880097
:1029c80086003700b1818000000726008080400023
:1029d800205b2000808f500003003e002013200061
:1029e800b08188007d003700b18180000007260093
:1029f80080804000506a2000808f500003003e0015
:102a080050162000b081880074003700b181800022
:102a1800000726008080400080792000808f5000c9
:102a280003003e0080192000b08188006b00370049
:102a3800b18180000007260080804000b088200017
:102a4800808f500003003e00b01c2000b081880039
:102a580062003700b18180000007260080804000b6
:102a6800e0972000808f500003003e00e01f200008
:102a7800b081880059003700b18180000007260026
:102a88008080400010a72000808f500003003e0087
:102a980010232000b081880050003700b1818000e9
:102aa800000726008080400040b62000808f50003c
:102ab80003003e0040262000b08188004700370010
:102ac800b1818000000726008080400070c520008a
:102ad800808f500003003e0070292000b0818800dc
:102ae8003e003700b181800000072600808040004a
:102af800a0d42000808f500003003e00a02c2000ae
:102b0800b081880035003700b181800000072600b9
:102b180080804000d0e32000808f500003003e00fa
:102b2800d02f2000b08188002c003700b1818000b0
:102b3800000726008080400000f32000808f5000ae
:102b480003003e0000332000b081880023003700d6
:102b5800b1818000000726008080400030022100fb
:102b6800808f500003003e0030362000b08188007e
:102b78001a003700b18180000007260080804000dd
:102b880060112100808f500003003e006039200052
:102b9800b081880011003700b1818000000726004d
:102ba8008080400090202100808f500003003e006c
:102bb800903c2000b081880008003700b181800077
:102bc800000726008080400090202100808f500060
:102bd80002003600f03f2000b081880085fe070023
:102be8004f04be000080fa00000006000000fa0052
:102bf8008002210051092100310098008002210043
:102c080077fc07000004e000480032008002210041
:102c18001001780090019000501820000100200059
:102c2800800f5100818f590004003a003170ef0085
:102c3800a008210011c0b3000148780080022100db
:102c4800100178009001900030132000010020004e
:102c5800800f5100818f590021003a008002210025
:102c6800300090000000e800104078008080fb00f1
:102c7800000f200080806000000f2000808f50002f
:102c880017003a0010c0b30040f0b70080022100de
:102c9800300090001040780080407800f0ccb300fd
:102ca80080c0600000d0bf000043b20000c07000c8
:102cb80000f0b70080022100300090000000e8001a
:102cc80010407800e340600001d0bf000041780068
:102cd800c0cfb3000040610000c0700001f0b70031
:102ce800800221001001780090019000000120006e
:102cf80001002000800f5100818f59000b003a001d
:102d08008002210030009000104078000080fb0015
:102d180061006000004078000004e000020032001a
:102d280055cea8000100370055cea9000080fa0052
:102d3800000006000000fa00889fbe008a9fbe00bf
:102d48008c9fbe00b08180008000eb0034f8070043
:102d580002002c00f3472400b3f7070040808800e6
:102d68005180880000d0bf00644060000004e0008b
:102d780005003200408080005180800001f0a200f0
:102d88004080880051808800408080005180800009
:102d980002002500337c240076f80700e4f70700da
:102da8006080880071808800608080007180800069
:102db800488ede00cf8ede008c407800d0082100df
:102dc800014878006080800071808000408dde00be
:102dd800cf8dde008a407800e008210001487800a5
:102de80060808000718080004809dd004804de00b2
:102df80008047100c88cde0088407800f0082100c3
:102e080001487800608080007180800080407800f0
:102e1800000921000148780000d0bf000042b2003c
:102e28000004e00022003a0000d0bf0062406000c9
:102e38000004e00004003a0000d0bf0064406000d5
:102e48000004e0001a0032000000eb006ffb0700ee
:102e58000202210010a52000010020000089be0008
:102e680000022100a00090000110a100210098009c
:102e780000022100a00090000100a000210098009d
:102e8800000221002001900031fc2f008100610028
:102e98000140a0002100980000022100d108210073
:102ea80031009800010221003000200084fb070057
:102eb8004f06be004f05be004f04be000080fa005a
:102ec800000006000000fa00507180004700de0094
:102ed80061406000e1406000400020000008dd0023
:102ee80001002100914078000144a10000c0700059
:102ef80000f0b700507180004600de0061406000bd
:102f0800e1406000500020000008dd0001002100c1
:102f1800914078000154a10000c0700000f0b70093
:102f280040d0bf000004a2000004e00051003200bd
:102f3800b07080004500de006140600061406000c4
:102f480001002100914078000104a10000c0700038
:102f580000f0b700b07080004600de0061406000fd
:102f6800614060000040400001002100914078006d
:102f78000114a10000c0700000f0b700f0718000db
:102f88004800de0061406000e14060002000200051
:102f98000008dd0001002100914078000124a10013
:102fa80000c0700000f0b700507180004d00de00d6
:102fb80061406000e1406000300020000008dd0052
:102fc80001002100914078000134a10000c0700088
:102fd80000f0b700b07080004800de00614060007b
:102fe800e1406000600020000008dd0001002100d1
:102ff800914078000164a10000c0700000f0b700a3
:10300800b07080004900de00e140600070002000e0
:103018000008dd0001002100914078000174a10042
:1030280000c0700000f0b700507180004a00de0058
:10303800614060006140600011002100914078000b
:103048000104a10000c0700001f0b700b07080005a
:103058004700de00614060006140600000404000c1
:1030680011002100914078000114a10000c07000f7
:1030780001f0b70000d0bf000080fb004400de0074
:10308800614060000080fb0000f0a7000000ea003b
:103098000000ea004f00de00004078003ef0b70074
:1030a8000080fa00000006000000fa00507180005d
:1030b8004500de0061406000e14060004000200003
:1030c8000008dd0011002100914078000144a100b2
:1030d80000c0700001f0b700107080004800de00ea
:1030e800e1406000700020000008dd0011002100b0
:1030f800914078000174a10000c0700001f0b70091
:10310800907280004f00de0000407800e1406000cf
:10311800600020000008dd001100210091407800c7
:103128000164a10000c0700001f0b70010708000b9
:103138004900de0061406000e1406000300020008e
:103148000008dd0011002100914078000134a10041
:1031580000c0700001f0b700b07080004400de00cd
:1031680061406000e1406000500020000008dd0080
:1031780011002100914078000154a10000c07000a6
:1031880001f0b700507180004300de00614060002c
:10319800e1406000200020000008dd00110021004f
:1031a800914078000124a10000c0700001f0b70030
:1031b800d07380004700de00614060000080fb00a3
:1031c80000f0a7000000ea000000ea004f00de005f
:1031d8008040780090082100014878001100210003
:1031e8009140780000c8b30000c060000004e0000f
:1031f80007003a0001d0bf000044b2000004e0001c
:10320800030032000010a9000030a9000050a900f6
:103218000080fa00000006000000fa00889fbe0047
:103228008a9fbe008c9fbe00b08180008000eb00aa
:10323800fbf6070002002c00f34724007af607008b
:103248008080880091808800808080009180800044
:1032580002002500337c240046f70700b4f6070077
:10326800a0808800b1808800a0808000b1808000a4
:10327800488ede00cf8ede008c40780030092100b9
:1032880001487800a0808000b1808000408dde0079
:10329800cf8dde008a40780040092100014878007f
:1032a800a0808000b18080004809dd004804de006d
:1032b80008047100c88cde0088407800500921009d
:1032c80001487800a0808000b180800080407800ac
:1032d8006009210001487800010021009140780030
:1032e8001009210001487800110021009140780060
:1032f80020092100014878000000eb0043fa07008c
:103308008201210090122000010020000089be00e7
:1033180080012100a00090000110a1002100980068
:1033280080012100a00090000100a1002100980068
:10333800800121002001900031fc2f0081006100f4
:103348008101b300210098008001210011092100aa
:1033580031009800810121003000200058fa070050
:103368004f06be004f05be004f04be000080fa00a5
:10337800000006000000fa0000d0bf0062406000b4
:103388000004e00006003a0000d0bf00644060007e
:103398000004e00002003a004a30ef003300370032
:1033a80000d0bf000042b2000004e00011003a0063
:1033b800b08180000000e0000e00320000d0bf00a5
:1033c800624060000004e0000300320010002000aa
:1033d800508288002500370000d0bf00644060009c
:1033e8000004e0001e003200200020005082880007
:1033f8001e00370000d0bf000042b2000004e00009
:1034080015003a0000d0bf00614060000004e000f1
:1034180011003200b08180000000e0000e003a0088
:1034280000d0bf00624060000004e00003003200ea
:1034380030002000508288000c00370000d0bf0008
:10344800644060000004e0000700320040002000f3
:1034580050828800050037004a30ef00030037002b
:1034680000000000010037000000000060828000ba
:103478000000e00006003200508280000000e000fa
:1034880003003a003630ef003a30ef0029fe07001b
:1034980050828000608288000080fa0000000600e8
:1034a8000000fa00f03f2000b08188000080fa0098
:1034b800000006000000fa00b1818000d081800081
:1034c80080805000007d20008080400030802000f7
:1034d800808f500004003600d08180003003b00097
:1034e800b08188000b003700b1818000d081800056
:1034f80080805000007d200080804000b05d20006a
:10350800808f500003003e00d0818000401fb10032
:10351800b0818800b0818000d08188000080fa00e6
:10352800000006000000fa004047a9004087a900f3
:103538001142800080ff2f00008060001042880048
:103548006142800080ff2f00008060006042880098
:103558000140fe000080fa00000006000000fa00aa
:10356800003a8000640060000000e00011003200b2
:103578004047a900003a8000700060000000e000a9
:10358800010032004087a9000060fe00114280005f
:1035980080ff2f00008060000000a000104288001b
:1035a8006142800080ff2f00008060000000a000c2
:1035b800604288000080fa00000006000000fa005f
:1035c800003a80000080fa00000006000200fa00bd
:1035d800faff0700000f78001e007800240007009b
:1035e8000004e0000200320000002800710007001b
:1035f8001e0078002a0007000004e00002003200e4
:10360800000024006b0007001e007800320007004d
:103618000004e000020032000020200065000700de
:103628001e0078003a0007000004e00002003200a3
:10363800000820005f0007001e0078004200070015
:103648000004e000020032000004200059000700d6
:103658001e0078004a0007000004e0000200320063
:1036680000012000530007000080fa000000060057
:103678000400fa00100798000040eb00004f7800a3
:103688001e0090000000e00002003d0010c0b300e2
:10369800004f78001e4078000080fa000000060005
:1036a8000400fa00100798000040eb00004f780073
:1036b8009e00900000002400008060000000e000f0
:1036c8000200320010c0b300004f78001e4078009e
:1036d8000080fa00000006000400fa0010079800b5
:1036e8000040eb00004f78009e0090000020200072
:1036f800008060000000e0000200320010c0b3004b
:10370800004f78001e4078000080fa000000060094
:103718000400fa00100798000040eb00004f780002
:103728009e00900000082000008060000000e0007b
:103738000200320010c0b300004f78001e4078002d
:103748000080fa00000006000400fa001007980044
:103758000040eb00004f78009e009000000420001d
:10376800008060000000e0000200320010c0b300da
:10377800004f78001e4078000080fa000000060024
:103788000400fa00100798000040eb00004f780092
:103798001e009000700060000000e000020032008f
:1037a80010c0b300004f78001e4078000080fa0077
:1037b800000006000200fa00000f78009e80ea0070
:1037c800003a800000806000003a88000080fa001b
:1037d800000006000000fa004027ef000080fa0011
:1037e800000006000000fa000021ef00f0c32900e5
:1037f800100888004000280020088800d082800037
:103808000000e00002003a00e0c421004c0007007c
:103818000068a9002068a800e00921008040eb00aa
:10382800014878000080fa00000006000200fa0053
:10383800000f78009e00780011088800e009210038
:103848008040eb00014878000080fa000000060084
:103858000000fa00100880000080fa00000006004e
:103868000200fa00000f78009e0078000108880026
:10387800e00921008040eb00014878000080fa0050
:10388800000006000000fa00000880000080fa002e
:10389800000006000000fa001103210091407800a2
:1038a80020c3b30080cf500010003a00a0082100c8
:1038b800104078000004a2000004e0000600320076
:1038c8008008210011c0b300014878007008210069
:1038d80011c0b30001487800a00821008040eb0027
:1038e800014878003170ef000d00370031d0bf007b
:1038f800f64f50000a003a00a00821001040780056
:103908000004e000060032008008210011c0b30066
:10391800014878007008210011c0b3000148780000
:1039280031d0bf000040e80031f0b70032d0bf000e
:103938000040e80032f0b7000080fa0000000600fe
:103948000200fa00000f78002068a9009e007800a5
:10395800d18288002068a8000080fa0000000600d4
:103968000000fa00e00921008040eb0001487800df
:103978002068a80005e1a8000080fa000000060001
:103988000000fa0005e1a9002068a9000080fa00fb
:10399800000006000200fa00e0092100104f78003c
:1039a8001e4078000004e00003003200e009210016
:1039b8008040eb00014878001e4078000080fa0043
:1039c800000006000000fa00f0092100104078000d
:1039d8000080fb000080fa00000006000000fa00ea
:1039e800f00921008040eb00014878000080fa00cf
:1039f800000006000000fa00042eef00182eef0069
:103a08002c2eef00402eef00542eef00682eef0012
:103a18007c2eef0030f1210000708800f0ff2300b9
:103a2800a0708800f0ef2300407188000014200087
:103a3800e071880000002b008072880030002000b0
:103a48002073880000382000c07388000010200010
:103a580060708800000120000071880000022000ca
:103a6800a0718800482eef0000002800e07288004e
:103a7800702eef00842eef000a2eef001e2eef00ae
:103a8800322eef00462eef005a2eef006e2eef007a
:103a9800822eef00062eef001a2eef002e2eef00da
:103aa800422eef00562eef006a2eef007e2eef001a
:103ab80030c021007070880030002000107188002c
:103ac80070a12000b071880000002300f072880007
:103ad8000030200030748800113a8000f00b20007c
:103ae800008160006004200071052000237420001c
:103af8008049780081497800824978000134800043
:103b080000fc2f0000806000e000b3000034880053
:103b180060c4b300d4e6b700103a80000001780012
:103b28000260a000600420007105200023742000ba
:103b3800804978008149780082497800090ea800f8
:103b4800092ea8001c8ea8001caea8001ccea80038
:103b58001ceea8001d0ea8001d2ea800314ea800be
:103b680031aea800306ea80030aea80030cea80054
:103b780030eea800450ea80059eea80080eea80077
:103b880000dd21000e0007000268a9002268a800d5
:103b98000080fa00000006000000fa00400821003a
:103ba80011c0b300014878005008210011c0b300cb
:103bb800014878003270ef000080fa00000006002b
:103bc8000200fa00000f78002268a9009e00780021
:103bd800018388002268a8000080fa00000006001f
:103be8000200fa00000f78001e007800f4ff0700ba
:103bf8000080fa00000006000000fa0055010700e6
:103c0800e8f70700f4f7070040002000fff7070077
:103c1800befa070052ff0700d07380004700de009d
:103c2800614060000080fb0000f0a7000000ea008f
:103c38000000ea004f00de00804078009008210074
:103c4800014878000060fe006008210010407800fc
:103c58000004e00004003200e4fb070060082100d3
:103c68008040eb000148780080082100104078006f
:103c78000004e0001d00320001d0bf007040600069
:103c88000004e00019003a0000d0bf000042b20072
:103c98000004e00010003a00dbfa0700b5fd070059
:103ca800508280000000e0000d0032005082800049
:103cb800e30f50000300320050828000e40f5000f0
:103cc80002003a00f03f2000b0818800f9fd0700ab
:103cd80018fc070002003700cbfa070015fc0700a4
:103ce800800821008040eb0001487800700821001e
:103cf800104078000004e00005003200c2fa070016
:103d080045fd0700700821008040eb00014878005d
:103d180040082100104078000004e0000400320050
:103d280068fc0700400821008040eb00014878004b
:103d380050082100104078000004e000070032001d
:103d480032d0bf00e14f500004003600d6fc070017
:103d5800500821008040eb000148780066f8070011
:103d68000004e00003003a0089f807000004e000be
:103d78000200320019cea8000100370019cea900b0
:103d8800e8fd0700f5fd0700aeff37000000fa0068
:103d980000022200005888006004200010588800a3
:103da800062bef0000002100205888000a2bef00a6
:103db800082bef000c2bef007000200070588800d3
:103dc8000088a9002088a800102bef00122bef0014
:103dd800162bef0000002100a05888001a2bef00d6
:103de800182bef001c2bef001e2bef0001c8a900b9
:103df8000002200000598800200220001059880085
:103e0800262bef0000002100205988002a2bef0004
:103e1800282bef002c2bef00700020007059880031
:103e28000308a9002308a800302bef00322bef006d
:103e3800362bef0000002100a05988003a2bef0034
:103e4800382bef003c2bef003e2bef000488a90035
:103e58000080fa00000006000000fa000080fa0066
:103e6800000006000000fa000080fa0000000600ca
:103e78000000fa000140800000002400008060007b
:103e88000000e00002003200f6ff070001c8a900a8
:103e98000080fa00000006000000fa000080fa0026
:103ea800000006000000fa000080fa00000006008a
:103eb8000000fa0020408000700060000000e00070
:103ec80002003200f7ff07000488a9000080fa000a
:103ed800000006000000fa0000102300203a8800c5
:103ee8004827ef004e27ef0020012000303a8800d5
:103ef800802f2f00003b8800f0f02000103b880046
:103f080000402000203b8800c0002000303b880093
:103f180000702000503b88006c27ef0000902100c3
:103f2800703b88003200200080072000a109200093
:103f380033742000804978008149780082497800ec
:103f48001200200060042000710520002374200066
:103f58008049780081497800824978000000000093
:103f6800103a8000610060000000e000fcff3a00a9
:103f780000000000113a800000022000008060006c
:103f88000000e000fbff32000080fa00000006009d
:103f98000000fa0040602a00001988002223ef0080
:103fa800f0ef2100201988002823ef002e23ef00ce
:103fb8003023ef003223ef002623ef00a0fe21007c
:103fc800050007000080fa00000006000000fa0063
:103fd8000080fa00000006000200fa00000f7800d6
:103fe8001e007800108388000080fa000000060098
:103ff8000000fa00014080000000220000806000fc
:104008000000e00006003200108380000000e0009d
:1040180002003200108380000000010001a8a900fe
:084028000080fa000000060010
:020000040000fa
:104030006410000020000000800000005e100000fe
:104040000200000082000000ffff00009e10000040
:1040500002000000800000005a1000000400000070
:1040600080000000601000000200000080000000de
:104070000012000000020000800000004e1000004e
:104080000c00000080000000621000000200000030
:1040900080000000841000001a0000008000000072
:1040a000001000004e000000800000000000000032
:020000040000fa
:1040b0000000fa0041428000f0ff2800008060000c
:1040c00000c0a000404288001142800080ff2f0005
:1040d000008060000000a000104288006142800063
:1040e00080ff2f00008060000000a0006042880078
:1040f00081428000f0ff28000080600000c0a00026
:104100008042880001428000f0ff280000806000ab
:1041100000c0a000004288000080fa0000000600f5
:104120000200fa00000f780021028000200f20001a
:10413000008060001e007000200288000080fa00ed
:10414000000006000000fa00c3e8a800000000001c
:10415000000000000080fa00000006000000fa00e5
:1041600026fe07005dff0700d1ff07008aff07005a
:10417000d6f5070007ff07009cfd0700f1ff0700c9
:1041800000022000e6ff07000080fa0000000600a1
:104190000200fa00000f78009e007800f18288008b
:1041a000ffff37000000fa0040062100800778007a
:1041b000c0072100000188000080fa00000006000e
:020000040000fa
:020000040005f5
:04570000ffff0000a7
:020000040000fa
:020000040005f5
:04572000ffff000087
:020000040000fa
:020000040005f5
:0457300078ff0000fe
:020000040000fa
:020000040005f5
:045738003aff000034
:020000040000fa
:020000040005f5
:04574000eaff00007c
:020000040000fa
:020000040005f5
:04574800ffff00005f
:020000040000fa
:020000040005f5
:04575000ffff000057
:020000040000fa
:020000040005f5
:04575800000000004d
:020000040000fa
:020000040005f5
:045760000000000045
:020000040000fa
:020000040005f5
:04576800000000003d
:020000040000fa
:020000040005f5
:045770000000000035
:020000040000fa
:020000040005f5
:04577800feff000030
:020000040000fa
:020000040005f5
:04578000ffff000027
:020000040000fa
:020000040005f5
:04578800ffff00001f
:00000001FF
